:100000000C945D000C9485000C9485000C94850084
:100010000C9485000C9485000C9485000C9485004C
:100020000C9485000C9485000C9485000C9443027C
:100030000C9485000C9485000C9485000C9485002C
:100040000C9479030C9485000C943F030C940403E6
:100050000C9485000C9485000C9485000C9485000C
:100060000C9485000C9485000000000024002700FB
:100070002A0000000000250028002B0004040404CE
:100080000404040402020202020203030303030342
:10009000010204081020408001020408102001021F
:1000A00004081020000000070002010000030406FD
:1000B0000000000000000000C30311241FBECFEFAA
:1000C000D8E0DEBFCDBF11E0A0E0B1E0E2E4FCE0AB
:1000D00002C005900D92AC31B107D9F721E0ACE137
:1000E000B1E001C01D92AA3FB207E1F710E0CDE5F3
:1000F000D0E004C02197FE010E941906CC35D1073B
:10010000C9F70E9434040C94A7050C940000CF9208
:10011000DF92EF92FF92DC01A03282E0B8070CF090
:100120003EC0B7FD06C0A53BB1052CF0A4EBB0E086
:1001300002C0A0E0B0E08091F80128E830E0690159
:10014000C81AD10887FDD394CC0CDD1CCC0CDD1C67
:100150000D2C000CEE08FF088091F90128E532E033
:10016000281B310987FD3395220F331F220F331FC0
:10017000A901330F660B770B9A01AB012C193D09CE
:100180004E095F090E94D40524EB30E040E050E0C6
:100190000E94AA05C20ED31EE41EF51ED601909140
:1001A000F7019C3098F58091F80148E850E0481B31
:1001B000510987FD5395440F551F440F551FA41730
:1001C000B5078CF08091F90128E532E0281B310950
:1001D00087FD3395220F331F220F331FAD012A17DE
:1001E0003B070CF4A9012FB7F894892F90E0FC018C
:1001F000EE0FFF1F8E0F9F1FFC01EE52FE4F42506D
:100200005109440F551F528341832FBFFF90EF9038
:10021000DF90CF900895089590E0FC01EC55FF4FDA
:100220002491FC01E057FF4F3491FC01E458FF4F4B
:10023000E491EE2309F43CC0222339F1233091F0FC
:1002400038F42130A9F0223001F584B58F7D12C039
:10025000263091F02730A1F02430B9F4809180004D
:100260008F7D03C0809180008F77809380000DC0C8
:1002700084B58F7784BD09C08091B0008F7703C0AB
:100280008091B0008F7D8093B000F0E0EE0FFF1FF3
:10029000EE58FF4FA591B4919FB7F894611104C037
:1002A0008C913095382302C0EC913E2B3C939FBF3C
:1002B00008950F931F93CF93DF93FC01A685B78515
:1002C0008D01005C1F4FE8018881998101968F7331
:1002D0009927AD014E5B5F4FEA01288139812817CC
:1002E0003907D1F3E80128813981A20FB31F6C933C
:1002F000A685B785A05CBF4F11969C938E93A68967
:10030000B7892C9181E090E0078C02C0880F991F7B
:100310000A94E2F7822B8C9381E081A30488F5890B
:10032000E02D80818064808381E090E0DF91CF9137
:100330001F910F910895FC0181A1882329F0A489C0
:10034000B5898C9186FFFBCF11A20895FC01A4858D
:10035000B585FD01E05CFF4F2081318132968081BF
:1003600091812817390779F080819181A80FB91FF1
:100370008C91208131812F5F3F4F2F733327318341
:10038000208390E008958FEF9FEF0895DC011C9685
:10039000ED91FC911D97DF01A05CBF4F2D913C9129
:1003A000119712968D919C9111972817390739F062
:1003B0008D919C91E80FF91F808190E008958FEF57
:1003C0009FEF0895FC0124853585F901E05CFF4F1E
:1003D00080819181329620813181821B930B8F73B2
:1003E0009927089580EB91E00C94E201CF92DF927F
:1003F000EF92FF920F931F93CF93DF936C01EB016A
:100400007B01E40EF51E00E010E0CE15DF0561F083
:100410006991D601ED91FC910190F081E02DC6012A
:100420000995080F191FF1CFC801DF91CF911F91D6
:100430000F91FF90EF90DF90CF9008953FB7F89421
:100440008091210190912201A0912301B09124017A
:1004500026B5A89B05C02F3F19F00196A11DB11D1F
:100460003FBFBA2FA92F982F8827820F911DA11D5A
:10047000B11DBC01CD0142E0660F771F881F991F97
:100480004A95D1F708951F920F920FB60F9211243B
:100490002F933F934F935F936F937F938F939F938C
:1004A000AF93BF93EF93FF938091270187FF05C020
:1004B00010928500109284001BC020912701022E0B
:1004C000000C330B8091F60190E02817390784F473
:1004D00080912701082E000C990BFC01EE0FFF1FE5
:1004E0008E0F9F1FFC01EE52FE4F808186FD15C0CE
:1004F000809127018F5F8093270120912701022E91
:10050000000C330B8091F60190E028173907C4F4F2
:10051000809127018C3064F113C080912701082E4F
:10052000000C990BFC01EE0FFF1F8E0F9F1FFC01AB
:10053000EE52FE4F808160E08F730E940C01D8CF95
:100540008091840090918500049680349C4918F431
:1005500080E49CE905C08091840090918500049618
:1005600090938900809388008FEF809327013BC090
:10057000209184003091850080912701082E000C85
:10058000990BFC01EE0FFF1F8E0F9F1FFC01EE5217
:10059000FE4F81819281820F931F909389008093F7
:1005A000880080912701082E000C990BFC01EE0FAA
:1005B000FF1F8E0F9F1FFC01EE52FE4F808186FFB2
:1005C00012C080912701082E000C990BFC01EE0F40
:1005D000FF1F8E0F9F1FFC01EE52FE4F808161E0D6
:1005E0008F730E940C01FF91EF91BF91AF919F918A
:1005F0008F917F916F915F914F913F912F910F90CC
:100600000FBE0F901F9018951F920F920FB60F926A
:1006100011242F933F938F939F93EF93FF932091F8
:1006200068013091690180916A0190916B012817EE
:10063000390731F48091C1008F7D8093C10014C0CF
:10064000E0916A01F0916B01E85DFE4F208180919D
:100650006A0190916B0101968F73992790936B01BA
:1006600080936A012093C600FF91EF919F918F9133
:100670003F912F910F900FBE0F901F9018951F92D2
:100680000F920FB60F9211242F934F935F938F9376
:100690009F93EF93FF938091C00082FD1CC0209137
:1006A000C6008091AC019091AD014091AE01509196
:1006B000AF0101968F7399274817590771F0E091A0
:1006C000AC01F091AD01E459FE4F20839093AD0150
:1006D0008093AC0102C08091C600FF91EF919F9181
:1006E0008F915F914F912F910F900FBE0F901F90A0
:1006F00018951F920F920FB60F9211242F933F93CC
:100700008F939F93AF93BF9380911D0190911E0192
:10071000A0911F01B091200130911C0123E0230F13
:100720002D3720F40196A11DB11D05C026E8230F29
:100730000296A11DB11D20931C0180931D01909371
:100740001E01A0931F01B09320018091210190917F
:100750002201A0912301B09124010196A11DB11D98
:100760008093210190932201A0932301B09324014F
:10077000BF91AF919F918F913F912F910F900FBE9D
:100780000F901F9018951092B3011092B20188EE4D
:1007900093E0A0E0B0E08093B4019093B501A09302
:1007A000B601B093B70184E091E09093B1018093DA
:1007B000B0018CE691E09093BD018093BC0188E28A
:1007C00091E09093BF018093BE0185EC90E09093FF
:1007D000C1018093C00184EC90E09093C3018093A9
:1007E000C20180EC90E09093C5018093C40181EC3C
:1007F00090E09093C7018093C60182EC90E09093C3
:10080000C9018093C80186EC90E09093CB0180935E
:10081000CA0184E08093CC0183E08093CD0187E01E
:100820008093CE0185E08093CF0181E08093D00159
:100830008091F6018C30A0F491E0980F9093F6012E
:100840008093F70190E0FC01EE0FFF1F8E0F9F1FBA
:10085000FC01EE52FE4F88EB9BE09283818308956A
:100860008FEF8093F7010895789484B5826084BDFA
:1008700084B5816084BD85B5826085BD85B58160A4
:1008800085BD80916E00816080936E001092810022
:1008900080918100826080938100809181008160DD
:1008A000809381008091800081608093800080919E
:1008B000B10084608093B1008091B000816080932A
:1008C000B00080917A00846080937A0080917A00F1
:1008D000826080937A0080917A00816080937A00B0
:1008E00080917A00806880937A001092C100809194
:1008F000F7018C3008F068C0E5E9F0E02491E1E808
:10090000F0E08491882399F090E0880F991FFC0112
:10091000E859FF4FA591B491FC01EE58FF4F859126
:1009200094918FB7F894EC91E22BEC938FBF809168
:10093000F701E82FF0E09F01220F331FE20FF31FB2
:10094000EE52FE4F9081907C956090831092F8015A
:100950001092F9016CE00E940D069CE0899FB001A5
:10096000112440E050E09B01240F351FF901EE0FE8
:10097000FF1F2E0F3F1FF901EE52FE4F908196FD93
:1009800016C04F5F5F4F4C30510569F781110FC0A2
:100990001092800082E08093810010928500109276
:1009A0008400B19A80916F00826080936F00E09123
:1009B000F701F0E0CF01880F991FE80FF91FEE5201
:1009C000FE4F808180648083809125019091260173
:1009D0000E948700E091C401F091C50181E090E0A0
:1009E0009C010090D00102C0220F331F0A94E2F74D
:1009F0002083E091C001F091C1011082E091C20119
:100A0000F091C3012FEC20831092D101E091C60137
:100A1000F091C70140819C010090CC0102C0220FDF
:100A2000331F0A94E2F7242B2083E091C601F09152
:100A3000C70140819C010090CD0102C0220F331FED
:100A40000A94E2F7242B2083E091C601F091C701BC
:100A500040819C010090CE0102C0220F331F0A94F6
:100A6000E2F7242B2083E091C601F091C701208199
:100A70000090CF0102C0880F991F0A94E2F7809579
:100A800082238083C0E49DEFC92E93E0D92EE12C10
:100A9000F12CC0937C0080917A00806480937A006E
:100AA00080917A0086FDFCCF2091780080917900BA
:100AB00030E0382BC901330FAA0BBB0B9C01AD01F1
:100AC0002150310941095109A3EBB0E00E94C90549
:100AD000A70196010E94AA05DA01C9010196A11D8C
:100AE000B11D90932601809325010E9487000E94EA
:100AF0001E028B018FE0882E912CA12CB12C0E941C
:100B00001E02601B710B683E7340C8F391E0891AA6
:100B10009108A108B10808511C4F81149104A10447
:100B2000B10469F74AE050E060E171E080EB91E0E8
:100B30000E94F6016DE080EB91E00E9459016AE0AD
:100B400080EB91E00E9459010E94F201A2CFF8943B
:100B50000C941F06052E97FB1EF400940E94C105FD
:100B600057FD07D00E94DC0507FC03D04EF40C941F
:100B7000C10550954095309521953F4F4F4F5F4FA0
:100B8000089590958095709561957F4F8F4F9F4FF9
:100B900008950E94FE05A59F900DB49F900DA49FFF
:100BA000800D911D11240895B7FF0C94C9050E9472
:100BB000C905821B930B0895A1E21A2EAA1BBB1B29
:100BC000FD010DC0AA1FBB1FEE1FFF1FA217B30719
:100BD000E407F50720F0A21BB30BE40BF50B661F2F
:100BE000771F881F991F1A9469F7609570958095F3
:100BF00090959B01AC01BD01CF010895A29FB0016A
:100C0000B39FC001A39F700D811D1124911DB29F40
:100C1000700D811D1124911D0895991B79E004C068
:100C2000991F961708F0961B881F7A95C9F780952B
:100C30000895EE0FFF1F0590F491E02D0994F894AC
:020C4000FFCFE4
:100C4200000000005901F601E201A601C6019B0164
:0C0C520048656C6C6F207A616B2000001C
:00000001FF
