:100000000C9462000C948A000C948A000C948A0070
:100010000C948A000C948A000C948A000C948A0038
:100020000C948A000C948A000C948A000C940903A6
:100030000C948A000C948A000C948A000C948A0018
:100040000C943F040C948A000C9405040C94CA038D
:100050000C948A000C948A000C948A000C948A00F8
:100060000C948A000C948A000000000024002700F1
:100070002A0000000000250028002B0000000007D7
:100080000002010000030406000000000000000060
:1000900000000000230026002900040404040404D6
:1000A0000404020202020202030303030303010227
:1000B00004081020408001020408102001020408F6
:1000C0001020890411241FBECFEFD8E0DEBFCDBFC2
:1000D00011E0A0E0B1E0E4E7F4E102C005900D9288
:1000E000AA32B107D9F722E0AAE2B1E001C01D921D
:1000F000AA30B207E1F710E0C2E6D0E004C02197D1
:10010000FE010E94320AC136D107C9F70E94FA04E3
:100110000C947D070C940000CF92DF92EF92FF9237
:10012000DC01A03282E0B8070CF03EC0B7FD06C08B
:10013000A53BB1052CF0A4EBB0E002C0A0E0B0E01C
:100140008091080228E830E06901C81AD10887FDCB
:10015000D394CC0CDD1CCC0CDD1C0D2C000CEE085B
:10016000FF088091090228E532E0281B310987FD4C
:100170003395220F331F220F331FA901330F660B54
:10018000770B9A01AB012C193D094E095F090E94BA
:10019000AA0724EB30E040E050E00E948007C20E46
:1001A000D31EE41EF51ED601909107029C3098F5EF
:1001B0008091080248E850E0481B510987FD53959B
:1001C000440F551F440F551FA417B5078CF080919D
:1001D000090228E532E0281B310987FD3395220FFB
:1001E000331F220F331FAD012A173B070CF4A9015F
:1001F0002FB7F894892F90E0FC01EE0FFF1F8E0FB0
:100200009F1FFC01EE51FE4F42505109440F551FF4
:10021000528341832FBFFF90EF90DF90CF900895DE
:1002200008950F931F93CF93DF93FC01A685B785A5
:100230008D01005C1F4FE8018881998101968F73C1
:100240009927AD014E5B5F4FEA012881398128175C
:100250003907D1F3E80128813981A20FB31F6C93CC
:10026000A685B785A05CBF4F11969C938E93A689F7
:10027000B7892C9181E090E0078C02C0880F991F0C
:100280000A94E2F7822B8C9381E081A30488F5899C
:10029000E02D80818064808381E090E0DF91CF91C8
:1002A0001F910F910895FC0181A1882329F0A48951
:1002B000B5898C9186FFFBCF11A20895FC01A4851E
:1002C000B585FD01E05CFF4F208131813296808150
:1002D00091812817390779F080819181A80FB91F82
:1002E0008C91208131812F5F3F4F2F7333273183D2
:1002F000208390E008958FEF9FEF0895DC011C9616
:10030000ED91FC911D97DF01A05CBF4F2D913C91B9
:10031000119712968D919C9111972817390739F0F2
:100320008D919C91E80FF91F808190E008958FEFE7
:100330009FEF0895FC0124853585F901E05CFF4FAE
:1003400080819181329620813181821B930B8F7342
:100350009927089580EC91E00C949A01CF92DF9256
:10036000EF92FF920F931F93CF93DF936C01EB01FA
:100370007B01E40EF51E00E010E0CE15DF0561F014
:100380006991D601ED91FC910190F081E02DC601BB
:100390000995080F191FF1CFC801DF91CF911F9167
:1003A0000F91FF90EF90DF90CF90089590E0FC01C7
:1003B000E458FF4F2491FC01E255FF4F3491FC01BA
:1003C000E656FF4FE491EE2309F43CC0222339F1B5
:1003D000233091F038F42130A9F0223001F584B5B2
:1003E0008F7D12C0263091F02730A1F02430B9F46F
:1003F000809180008F7D03C0809180008F778093F3
:1004000080000DC084B58F7784BD09C08091B00095
:100410008F7703C08091B0008F7D8093B000F0E0B3
:10042000EE0FFF1FEE58FF4FA591B4919FB7F894C0
:10043000611104C08C913095382302C0EC913E2BA1
:100440003C939FBF0895CF93DF9390E0FC01E2556A
:10045000FF4F2491FC01E656FF4F8491882361F100
:1004600090E0880F991FFC01E859FF4FC591D49186
:10047000FC01EE58FF4FA591B491611109C09FB7DF
:10048000F8948881209582238883EC912E230BC0D9
:10049000623061F49FB7F8948881322F30958323BE
:1004A0008883EC912E2B2C939FBF06C08FB7F894B6
:1004B000E8812E2B28838FBFDF91CF9108953FB71E
:1004C000F89480912F0190913001A0913101B09169
:1004D000320126B5A89B05C02F3F19F00196A11D3A
:1004E000B11D3FBFBA2FA92F982F8827820F911DCA
:1004F000A11DB11DBC01CD0142E0660F771F881F11
:10050000991F4A95D1F70895CF92DF92EF92FF920B
:10051000CF93DF936B017C010E945F02EB01C1145A
:10052000D104E104F10479F00E945F026C1B7D0BA1
:10053000683E7340A0F381E0C81AD108E108F108D1
:10054000C851DC4FECCFDF91CF91FF90EF90DF905F
:10055000CF900895009769F0FC0101900020E9F721
:100560003197AF01481B590BBC0180EC91E00C9412
:10057000AE0180E090E008958F929F92AF92BF927B
:10058000EF92FF920F931F93CF93DF93CDB7DEB718
:10059000A1970FB6F894DEBF0FBECDBF162F042F64
:1005A00019A2423008F40AE07E0121E2E20EF11CB9
:1005B000802E912CA12CB12C612FA50194010E94B9
:1005C000B207029F1019112481E0E81AF1081A30CD
:1005D00014F4105D01C0195CF7011083122F732F02
:1005E000CA01232B242B252B39F7C7010E94AA020D
:1005F000A1960FB6F894DEBF0FBECDBFDF91CF91AD
:100600001F910F91FF90EF90BF90AF909F908F90B0
:1006100008951F920F920FB60F9211242F933F93BC
:100620004F935F936F937F938F939F93AF93BF93FA
:10063000EF93FF938091370187FF05C010928500EB
:10064000109284001BC020913701022E000C330B46
:100650008091060290E02817390784F480913701D1
:10066000082E000C990BFC01EE0FFF1F8E0F9F1F31
:10067000FC01EE51FE4F808186FD15C0809137014F
:100680008F5F8093370120913701022E000C330BCE
:100690008091060290E028173907C4F48091370151
:1006A0008C3064F113C080913701082E000C990B37
:1006B000FC01EE0FFF1F8E0F9F1FFC01EE51FE4F3E
:1006C000808160E08F730E94D601D8CF8091840032
:1006D00090918500049680349C4918F480E49CE94C
:1006E00005C08091840090918500049690938900C4
:1006F000809388008FEF809337013BC02091840066
:100700003091850080913701082E000C990BFC0177
:10071000EE0FFF1F8E0F9F1FFC01EE51FE4F8181D8
:100720009281820F931F909389008093880080911B
:100730003701082E000C990BFC01EE0FFF1F8E0FE6
:100740009F1FFC01EE51FE4F808186FF12C08091F9
:100750003701082E000C990BFC01EE0FFF1F8E0FC6
:100760009F1FFC01EE51FE4F808161E08F730E945C
:10077000D601FF91EF91BF91AF919F918F917F91A2
:100780006F915F914F913F912F910F900FBE0F90FE
:100790001F9018951F920F920FB60F9211242F934E
:1007A0003F938F939F93EF93FF9320917801309124
:1007B000790180917A0190917B012817390731F4F2
:1007C0008091C1008F7D8093C10014C0E0917A01B7
:1007D000F0917B01E85CFE4F208180917A0190913D
:1007E0007B0101968F73992790937B0180937A0107
:1007F0002093C600FF91EF919F918F913F912F9190
:100800000F900FBE0F901F9018951F920F920FB66A
:100810000F9211242F934F935F938F939F93EF9396
:10082000FF938091C00082FD1CC02091C600809182
:10083000BC019091BD014091BE015091BF01019654
:100840008F7399274817590771F0E091BC01F09117
:10085000BD01E458FE4F20839093BD018093BC01FD
:1008600002C08091C600FF91EF919F918F915F919F
:100870004F912F910F900FBE0F901F9018951F92C0
:100880000F920FB60F9211242F933F938F939F9344
:10089000AF93BF9380912B0190912C01A0912D01DA
:1008A000B0912E0130912A0123E0230F2D3720F43F
:1008B0000196A11DB11D05C026E8230F0296A11DBA
:1008C000B11D20932A0180932B0190932C01A093BA
:1008D0002D01B0932E0180912F0190913001A091B4
:1008E0003101B09132010196A11DB11D80932F01FC
:1008F00090933001A0933101B0933201BF91AF9139
:100900009F918F913F912F910F900FBE0F901F904D
:1009100018951092C3011092C20188EE93E0A0E0F6
:10092000B0E08093C4019093C501A093C601B09339
:10093000C70184E091E09093C1018093C0018CE7EE
:1009400091E09093CD018093CC0188E391E0909366
:10095000CF018093CE0185EC90E09093D1018093FC
:10096000D00184EC90E09093D3018093D20180EC8D
:1009700090E09093D5018093D40181EC90E0909326
:10098000D7018093D60182EC90E09093D9018093B7
:10099000D80186EC90E09093DB018093DA0184E04B
:1009A0008093DC0183E08093DD0187E08093DE01AA
:1009B00085E08093DF0181E08093E0018091060271
:1009C0008C30A0F491E0980F909306028093070278
:1009D00090E0FC01EE0FFF1F8E0F9F1FFC01EE51F8
:1009E000FE4F88EB9BE09283818308958FEF809385
:1009F00007020895789484B5826084BD84B58160CF
:100A000084BD85B5826085BD85B5816085BD8091D9
:100A10006E00816080936E00109281008091810051
:100A20008260809381008091810081608093810049
:100A3000809180008160809380008091B10084600B
:100A40008093B1008091B00081608093B00080916C
:100A50007A00846080937A0080917A00826080932B
:100A60007A0080917A00816080937A0080917A0088
:100A7000806880937A001092C100E091D401F091D7
:100A8000D50181E090E09C010090E00102C0220FBE
:100A9000331F0A94E2F72083E091D001F091D10155
:100AA0001082E091D201F091D3012FEC20831092BB
:100AB000E101E091D601F091D70140819C010090C5
:100AC000DC0102C0220F331F0A94E2F7242B20839B
:100AD000E091D601F091D70140819C010090DD01A9
:100AE00002C0220F331F0A94E2F7242B2083E091E7
:100AF000D601F091D70140819C010090DE0102C037
:100B0000220F331F0A94E2F7242B2083E091D601B1
:100B1000F091D70120810090DF0102C0880F991F5A
:100B20000A94E2F780958223808361E087E00E9447
:100B3000230261E089E00E94230260E086E00E94D7
:100B4000230261E089E00E94D601809107028C3087
:100B500008F051C061E083E00E9423028091070207
:100B6000E82FF0E09F01220F331FE20FF31FEE5139
:100B7000FE4F9081907C93609083109208021092B7
:100B800009026CE00E94260A2CE0829FB001112429
:100B900040E050E09B01240F351FF901EE0FFF1FCD
:100BA0002E0F3F1FF901EE51FE4F908196FD16C0AA
:100BB0004F5F5F4F4C30510569F781110FC01092A4
:100BC000800082E080938100109285001092840062
:100BD000B19A80916F00826080936F00E09107026C
:100BE000F0E0CF01880F991FE80FF91FEE51FE4F7B
:100BF00080818064808380E090E00E948C0042E0ED
:100C0000242E312CC2E2D0E050E4852E52E4952E01
:100C10005FE0A52EB12C60E087E00E94D601C10103
:100C20000197F1F761E087E00E94D601CE010197BC
:100C3000F1F760E087E00E94D601E4EBF0E0149168
:100C4000E0EAF0E0849190E0880F991F80579F4F71
:100C500040E050E0BA01FC01A591B4912C91212310
:100C6000121317C04F5F5F4F6F4F7F4F4134F2E455
:100C70005F07FFE06F07710571F73FC04F5F5F4F80
:100C80006F4F7F4F413422E452072FE06207710516
:100C9000A1F1FC01A591B4912C9121231213EECF67
:100CA00075016401C41AD50AE60AF70A20E030E0AB
:100CB000A901FC01A591B4916C91612316130AC09E
:100CC0002C153D054E055F05C1F02F5F3F4F4F4F7F
:100CD0005F4FEFCFA5E1B0E00E949F07DC01CB01A1
:100CE0004096A11DB11DBC01CD0124E096958795CC
:100CF000779567952A95D1F703C060E070E0CB0146
:100D00000E94FD0820E030E048E652E40E945508C9
:100D10000E94C708072E000C880B990B0E94FF0841
:100D200060933301709334018093350190933601C1
:100D300080E191E00E94AA02C0903301D09034017A
:100D4000E0903501F0903601A7019601C701B60188
:100D50000E94210A882319F08CE191E01AC0260133
:100D60003701E89477F82FEF3FEF4FE75FE7C301D4
:100D7000B2010E94210A81110FC02FEF3FEF4FE710
:100D80005FE7C301B2010E94500818162CF480E2FC
:100D900091E00E94AA0281C02FEF3FEF4FE75FE48E
:100DA000C701B6010E94AF0918161CF484E291E055
:100DB000F0CF2FEF3FEF4FE75FECC701B6010E9486
:100DC000500887FDF3CF20E030E0A901C701B6014C
:100DD0000E94500887FF09C06DE280EC91E00E94FC
:100DE0001101F7FAF094F7F8F0942AE037ED43EAAE
:100DF0005BE3C701B6010E94E4076B017C010E941E
:100E0000CE082B013C010E94FD089B01AC01C701EB
:100E1000B6010E94E3076B017C014AE0C301B20105
:100E20000E94BC0288E291E00E94AA0213E01150E5
:100E3000A1F120E030E040E251E4C701B6010E9498
:100E4000B4092B013C010E94C7086B01770FEE0823
:100E5000FF08F7FE10C06DE280EC91E00E941101E6
:100E600088279927DC018C199D09AE09BF094AE042
:100E7000BC01CD0103C04AE0C701B6010E94BC021B
:100E8000C701B6010E94FF089B01AC01C301B2017A
:100E90000E94E3076B017C01CACF6DE080EC91E01A
:100EA0000E9411016AE080EC91E00E94110120E0B3
:100EB00030E040E251E4609133017091340180915F
:100EC0003501909136010E94500887FF09C080E0EB
:100ED00090E00E948C0064E670E080E090E008C042
:100EE00084EB90E00E948C0068EC70E080E090E081
:100EF0000E9484020E94AA018ECEF8940C94380AB3
:100F0000052E97FB1EF400940E94970757FD07D00B
:100F10000E94B20707FC03D04EF40C94970750953B
:100F20004095309521953F4F4F4F5F4F08959095D5
:100F30008095709561957F4F8F4F9F4F08950E94C8
:100F4000D407A59F900DB49F900DA49F800D911D77
:100F500011240895B7FF0C949F070E949F07821BDE
:100F6000930B0895A1E21A2EAA1BBB1BFD010DC015
:100F7000AA1FBB1FEE1FFF1FA217B307E407F50749
:100F800020F0A21BB30BE40BF50B661F771F881F25
:100F9000991F1A9469F760957095809590959B01BB
:100FA000AC01BD01CF010895A29FB001B39FC00164
:100FB000A39F700D811D1124911DB29F700D811D85
:100FC0001124911D08955058BB27AA270E94FB07A2
:100FD0000C9475090E94670938F00E946E0920F090
:100FE00039F49F3F19F426F40C9464090EF4E0954B
:100FF000E7FB0C945E09E92F0E94860958F3BA17A3
:10100000620773078407950720F079F4A6F50C941E
:10101000A8090EF4E0950B2EBA2FA02D0B01B901F3
:1010200090010C01CA01A0011124FF27591B99F05E
:10103000593F50F4503E68F11A16F040A22F232F6A
:10104000342F4427585FF3CF469537952795A795BA
:10105000F0405395C9F77EF41F16BA0B620B730B61
:10106000840BBAF09150A1F0FF0FBB1F661F771FD2
:10107000881FC2F70EC0BA0F621F731F841F48F487
:10108000879577956795B795F7959E3F08F0B0CF10
:101090009395880F08F09927EE0F979587950895F7
:1010A0000E943A0908F481E008950E9469080C94AE
:1010B00075090E946E0958F00E94670940F029F4F2
:1010C0005F3F29F00C945E0951110C94A9090C940E
:1010D00064090E94860968F39923B1F3552391F3BB
:1010E000951B550BBB27AA2762177307840738F097
:1010F0009F5F5F4F220F331F441FAA1FA9F335D0F4
:101100000E2E3AF0E0E832D091505040E695001CA7
:10111000CAF72BD0FE2F29D0660F771F881FBB1F61
:10112000261737074807AB07B0E809F0BB0B802D3F
:10113000BF01FF2793585F4F3AF09E3F510578F06B
:101140000C945E090C94A9095F3FE4F3983ED4F334
:10115000869577956795B795F7959F5FC9F7880F3F
:10116000911D9695879597F90895E1E0660F771F91
:10117000881FBB1F621773078407BA0720F0621B22
:10118000730B840BBA0BEE1F88F7E09508950E944D
:10119000CE086894B1110C94A90908950E948E0993
:1011A00088F09F5798F0B92F9927B751B0F0E1F028
:1011B000660F771F881F991F1AF0BA95C9F714C0D8
:1011C000B13091F00E94A809B1E008950C94A809EB
:1011D000672F782F8827B85F39F0B93FCCF3869511
:1011E00077956795B395D9F73EF49095809570956E
:1011F00061957F4F8F4F9F4F0895E89409C097FBEB
:101200003EF490958095709561957F4F8F4F9F4FDD
:101210009923A9F0F92F96E9BB279395F695879521
:1012200077956795B795F111F8CFFAF4BB0F11F4E4
:1012300060FF1BC06F5F7F4F8F4F9F4F16C088238B
:1012400011F096E911C0772321F09EE8872F762FC1
:1012500005C0662371F096E8862F70E060E02AF002
:101260009A95660F771F881FDAF7880F96958795EE
:1012700097F90895990F0008550FAA0BE0E8FEEFC3
:1012800016161706E807F907C0F012161306E4074A
:10129000F50798F0621B730B840B950B39F40A2643
:1012A00061F0232B242B252B21F408950A2609F421
:1012B000A140A6958FEF811D811D089597F99F6725
:1012C00080E870E060E008959FEF80EC08950024CE
:1012D0000A941616170618060906089500240A949B
:1012E00012161306140605060895092E0394000C21
:1012F00011F4882352F0BB0F40F4BF2B11F460FFB0
:1013000004C06F5F7F4F8F4F9F4F089557FD9058D8
:10131000440F551F59F05F3F71F04795880F97FBB9
:10132000991F61F09F3F79F0879508951216130673
:101330001406551FF2CF4695F1DF08C016161706A2
:101340001806991FF1CF86957105610508940895D7
:10135000E894BB2766277727CB0197F908950E9469
:101360003A0908F48FEF08950E94C7090C94750993
:101370000E94670938F00E946E0920F0952311F051
:101380000C945E090C94640911240C94A9090E9420
:10139000860970F3959FC1F3950F50E0551F629F2A
:1013A000F001729FBB27F00DB11D639FAA27F00DBE
:1013B000B11DAA1F649F6627B00DA11D661F829FE5
:1013C0002227B00DA11D621F739FB00DA11D621FCA
:1013D000839FA00D611D221F749F3327A00D611DE7
:1013E000231F849F600D211D822F762F6A2F1124C9
:1013F0009F5750409AF0F1F088234AF0EE0FFF1FFC
:10140000BB1F661F771F881F91505040A9F79E3F52
:10141000510580F00C945E090C94A9095F3FE4F338
:10142000983ED4F3869577956795B795F795E795A8
:101430009F5FC1F7FE2B880F911D9695879597F9B1
:1014400008950E943A09880B990B0895991B79E039
:1014500004C0991F961708F0961B881F7A95C9F744
:1014600080950895EE0FFF1F0590F491E02D0994EB
:04147000F894FFCF1E
:10147400000000001101AE019A015E017E015301DA
:1014840044697374616E6365203A20006E616E0076
:0A149400696E66006F7666002E0098
:00000001FF
