:100000000C945D000C9485000C9485000C94850084
:100010000C9485000C9485000C9485000C9485004C
:100020000C9485000C9485000C9485000C9485003C
:100030000C9485000C9485000C9485000C9485002C
:100040000C947C020C9485000C9442020C940702E0
:100050000C9485000C9485000C9485000C9485000C
:100060000C9485000C94850000000007000201003C
:100070000003040600000000000000000000000073
:10008000250028002B0000000000240027002A0083
:10009000040404040404040402020202020203032E
:1000A0000303030301020408102040800102040836
:1000B0001020010204081020C60211241FBECFEF39
:1000C000D8E0DEBFCDBF11E0A0E0B1E0E2EDF7E0A7
:1000D00002C005900D92AC31B107D9F721E0ACE137
:1000E000B1E001C01D92AF3CB207E1F710E0CDE5F1
:1000F000D0E004C02197FE010E94E103CC35D10776
:10010000C9F70E9401030C94DE030C94000090E0F8
:10011000FC01EC55FF4F2491FC01E057FF4F849107
:10012000882399F090E0880F991FFC01EA57FF4F50
:10013000A591B491FC01E458FF4F859194918FB73C
:10014000F894EC91E22BEC938FBF089508950F93F0
:100150001F93CF93DF93FC01A685B7858D01005CCB
:100160001F4FE8018881998101968F739927AD010E
:100170004E5B5F4FEA012881398128173907D1F397
:10018000E80128813981A20FB31F6C93A685B7853A
:10019000A05CBF4F11969C938E93A689B7892C9132
:1001A00081E090E0078C02C0880F991F0A94E2F763
:1001B000822B8C9381E081A30488F589E02D8081D6
:1001C0008064808381E090E0DF91CF911F910F9157
:1001D0000895FC0181A1882329F0A489B5898C9117
:1001E00086FFFBCF11A20895FC01A485B585FD0112
:1001F000E05CFF4F20813181329680819181281708
:10020000390779F080819181A80FB91F8C912081E5
:1002100031812F5F3F4F2F7333273183208390E04D
:1002200008958FEF9FEF0895DC011C96ED91FC91EE
:100230001D97DF01A05CBF4F2D913C911197129645
:100240008D919C9111972817390739F08D919C91C8
:10025000E80FF91F808190E008958FEF9FEF0895D8
:10026000FC0124853585F901E05CFF4F8081918197
:10027000329620813181821B930B8F7399270895C9
:100280008DEA91E00C943001CF92DF92EF92FF92D1
:100290000F931F93CF93DF936C01EB017B01E40E6F
:1002A000F51E00E010E0CE15DF0561F06991D60182
:1002B000ED91FC910190F081E02DC6010995080FA8
:1002C000191FF1CFC801DF91CF911F910F91FF90BE
:1002D000EF90DF90CF90089590E0FC01E859FF4F38
:1002E0002491FC01EC55FF4F3491FC01E057FF4F86
:1002F000E491EE2309F43CC0222339F1233091F03C
:1003000038F42130A9F0223001F584B58F7D12C078
:10031000263091F02730A1F02430B9F4809180008C
:100320008F7D03C0809180008F77809380000DC007
:1003300084B58F7784BD09C08091B0008F7703C0EA
:100340008091B0008F7D8093B000F0E0EE0FFF1F32
:10035000E458FF4FA591B4919FB7F894611104C080
:100360008C913095382302C0EC913E2B3C939FBF7B
:1003700008953FB7F8948091210190912201A091B6
:100380002301B091240126B5A89B05C02F3F19F089
:100390000196A11DB11D3FBFBA2FA92F982F882705
:1003A000820F911DA11DB11DBC01CD0142E0660F60
:1003B000771F881F991F4A95D1F70895CF92DF9232
:1003C000EF92FF92CF93DF930E94B901EB0188EE89
:1003D000C82E83E0D82EE12CF12C0E94B9016C1BB1
:1003E0007D0B683E7340C8F381E0C81AD108E1086C
:1003F000F108C851DC4FC114D104E104F10469F7DC
:10040000DF91CF91FF90EF90DF90CF9008951F92F2
:100410000F920FB60F9211242F933F938F939F93B8
:10042000EF93FF9320916501309166018091670100
:10043000909168012817390731F48091C1008F7DB0
:100440008093C10014C0E0916701F0916801EB5DF9
:10045000FE4F2081809167019091680101968F7312
:10046000992790936801809367012093C600FF91BC
:10047000EF919F918F913F912F910F900FBE0F9011
:100480001F9018951F920F920FB60F9211242F9361
:100490004F935F938F939F93EF93FF938091C0004F
:1004A00082FD1CC02091C6008091A9019091AA01F3
:1004B0004091AB015091AC0101968F739927481779
:1004C000590771F0E091A901F091AA01E759FE4F97
:1004D00020839093AA018093A90102C08091C60055
:1004E000FF91EF919F918F915F914F912F910F907D
:1004F0000FBE0F901F9018951F920F920FB60F927C
:1005000011242F933F938F939F93AF93BF93809129
:100510001D0190911E01A0911F01B0912001309109
:100520001C0123E0230F2D3720F40196A11DB11DDE
:1005300005C026E8230F0296A11DB11D20931C01C2
:1005400080931D0190931E01A0931F01B093200181
:100550008091210190912201A0912301B091240169
:100560000196A11DB11D8093210190932201A093BA
:100570002301B0932401BF91AF919F918F913F913F
:100580002F910F900FBE0F901F901895EDEAF1E09C
:100590001382128288EE93E0A0E0B0E0848395831A
:1005A000A683B78384E091E09183808389E691E01C
:1005B0009587848785E291E09787868785EC90E030
:1005C000918B808B84EC90E0938B828B80EC90E01D
:1005D000958B848B81EC90E0978B868B82EC90E0FE
:1005E000918F808F86EC90E0938F828F84E0848F50
:1005F00083E0858F87E0868F85E0878F81E080A309
:100600000895789484B5826084BD84B5816084BD8A
:1006100085B5826085BD85B5816085BD80916E00A0
:10062000816080936E0010928100809181008260D1
:10063000809381008091810081608093810080910E
:1006400080008160809380008091B10084608093FD
:10065000B1008091B00081608093B00080917A00F9
:10066000846080937A0080917A00826080937A001F
:1006700080917A00816080937A0080917A0080680E
:1006800080937A001092C10084E00E94870087E086
:100690000E94870088E00E948700E091C101F091EC
:1006A000C20181E090E09C010090CD0102C0220FC8
:1006B000331F0A94E2F72083E091BD01F091BE015F
:1006C0001082E091BF01F091C0012FEC20831092C5
:1006D000CE01E091C301F091C40140819C010090E2
:1006E000C90102C0220F331F0A94E2F7242B208392
:1006F000E091C301F091C40140819C010090CA01C6
:1007000002C0220F331F0A94E2F7242B2083E091CA
:10071000C301F091C40140819C010090CB0102C053
:10072000220F331F0A94E2F7242B2083E091C301A8
:10073000F091C40120810090CC0102C0880F991F64
:100740000A94E2F780958223808361E084E00E942E
:100750006C010E94DE0161E087E00E946C010E9452
:10076000DE0161E088E00E946C010E94DE0160E031
:1007700084E00E946C010E94DE0160E087E00E943C
:100780006C010E94DE0160E088E00E946C010E9422
:10079000DE014AE050E060E171E08DEA91E00E9404
:1007A00044016DE08DEA91E00E94A7006AE08DEAC5
:1007B00091E00E94A7000E944001C7CFF8940C94DA
:1007C000E703EE0FFF1F0590F491E02D0994F894D4
:0207D000FFCF59
:1007D20000000000A70044013001F4001401E90008
:0C07E20048656C6C6F207A616B20000091
:00000001FF
