:100000000C9462000C948A000C948A000C948A0070
:100010000C948A000C948A000C948A000C948A0038
:100020000C948A000C948A000C948A000C948A0028
:100030000C948A000C948A000C948A000C948A0018
:100040000C9498020C948A000C945E020C94230287
:100050000C948A000C948A000C948A000C948A00F8
:100060000C948A000C948A00000000070002010032
:100070000003040600000000000000000000000073
:10008000250028002B0000000000240027002A0083
:1000900000000000230026002900040404040404D6
:1000A0000404020202020202030303030303010227
:1000B00004081020408001020408102001020408F6
:1000C0001020E20211241FBECFEFD8E0DEBFCDBF6B
:1000D00011E0A0E0B1E0EAEDFFE002C005900D9272
:1000E000AA32B107D9F721E0AAE2B1E001C01D921E
:1000F000A13EB207E1F710E0C2E6D0E004C02197CC
:10010000FE010E94D607C136D107C9F70E941D0320
:100110000C9463050C94000008950F931F93CF93E4
:10012000DF93FC01A685B7858D01005C1F4FE801B8
:100130008881998101968F739927AD014E5B5F4F3E
:10014000EA012881398128173907D1F3E80128818C
:100150003981A20FB31F6C93A685B785A05CBF4FF2
:1001600011969C938E93A689B7892C9181E090E09B
:10017000078C02C0880F991F0A94E2F7822B8C9398
:1001800081E081A30488F589E02D808180648083EB
:1001900081E090E0DF91CF911F910F910895FC01D4
:1001A00081A1882329F0A489B5898C9186FFFBCF92
:1001B00011A20895FC01A485B585FD01E05CFF4F07
:1001C000208131813296808191812817390779F019
:1001D00080819181A80FB91F8C91208131812F5F7F
:1001E0003F4F2F7333273183208390E008958FEFA3
:1001F0009FEF0895DC011C96ED91FC911D97DF01A6
:10020000A05CBF4F2D913C91119712968D919C91BE
:1002100011972817390739F08D919C91E80FF91F34
:10022000808190E008958FEF9FEF0895FC01248571
:100230003585F901E05CFF4F808191813296208104
:100240003181821B930B8F73992708958FEB91E077
:100250000C941601CF92DF92EF92FF920F931F93AF
:10026000CF93DF936C01EB017B01E40EF51E00E000
:1002700010E0CE15DF0561F06991D601ED91FC919A
:100280000190F081E02DC6010995080F191FF1CFEB
:10029000C801DF91CF911F910F91FF90EF90DF90F8
:1002A000CF90089590E0FC01E859FF4F2491FC01A4
:1002B000E255FF4F3491FC01E656FF4FE491EE23E7
:1002C00009F43CC0222339F1233091F038F4213075
:1002D000A9F0223001F584B58F7D12C0263091F04F
:1002E0002730A1F02430B9F4809180008F7D03C0C5
:1002F000809180008F77809380000DC084B58F77C8
:1003000084BD09C08091B0008F7703C08091B00098
:100310008F7D8093B000F0E0EE0FFF1FE458FF4F99
:10032000A591B4919FB7F894611104C08C91309558
:10033000382302C0EC913E2B3C939FBF08953FB7FA
:10034000F89480912F0190913001A0913101B091EA
:10035000320126B5A89B05C02F3F19F00196A11DBB
:10036000B11D3FBFBA2FA92F982F8827820F911D4B
:10037000A11DB11DBC01CD0142E0660F771F881F92
:10038000991F4A95D1F70895009769F0FC010190F3
:100390000020E9F73197AF01481B590BBC018FEBE7
:1003A00091E00C942A0180E090E008958F929F9252
:1003B000AF92BF92EF92FF920F931F93CF93DF9371
:1003C000CDB7DEB7A1970FB6F894DEBF0FBECDBF95
:1003D000162F042F19A2423008F40AE07E0121E210
:1003E000E20EF11C802E912CA12CB12C612FA501C5
:1003F00094010E94A907029F1019112481E0E81AB4
:10040000F1081A3014F4105D01C0195CF701108373
:10041000122F732FCA01232B242B252B39F7C70149
:100420000E94C401A1960FB6F894DEBF0FBECDBFE7
:10043000DF91CF911F910F91FF90EF90BF90AF9000
:100440009F908F9008951F920F920FB60F921124D4
:100450002F933F938F939F93EF93FF932091770177
:10046000309178018091790190917A0128173907AC
:1004700031F48091C1008F7D8093C10014C0E09160
:100480007901F0917A01E95CFE4F20818091790138
:1004900090917A0101968F73992790937A018093B6
:1004A00079012093C600FF91EF919F918F913F9129
:1004B0002F910F900FBE0F901F9018951F920F92C3
:1004C0000FB60F9211242F934F935F938F939F93A7
:1004D000EF93FF938091C00082FD1CC02091C60065
:1004E0008091BB019091BC014091BD015091BE0132
:1004F00001968F7399274817590771F0E091BB0156
:10050000F091BC01E558FE4F20839093BC0180938D
:10051000BB0102C08091C600FF91EF919F918F9126
:100520005F914F912F910F900FBE0F901F901895D4
:100530001F920F920FB60F9211242F933F938F9318
:100540009F93AF93BF9380912B0190912C01A09129
:100550002D01B0912E0130912A0123E0230F2D3778
:1005600020F40196A11DB11D05C026E8230F0296B7
:10057000A11DB11D20932A0180932B0190932C0182
:10058000A0932D01B0932E0180912F019091300105
:10059000A0913101B09132010196A11DB11D80934E
:1005A0002F0190933001A0933101B0933201BF919C
:1005B000AF919F918F913F912F910F900FBE0F9010
:1005C0001F901895EFEBF1E01382128288EE93E012
:1005D000A0E0B0E084839583A683B78384E091E0B4
:1005E000918380838BE791E09587848787E391E00F
:1005F0009787868785EC90E0918B808B84EC90E0E8
:10060000938B828B80EC90E0958B848B81EC90E0D7
:10061000978B868B82EC90E0918F808F86EC90E0B8
:10062000938F828F84E0848F83E0858F87E0868F2D
:1006300085E0878F81E080A30895789484B58260F7
:1006400084BD84B5816084BD85B5826085BD85B576
:10065000816085BD80916E00816080936E001092F4
:10066000810080918100826080938100809181006F
:100670008160809381008091800081608093800000
:100680008091B10084608093B1008091B00081605E
:100690008093B00080917A00846080937A0080918A
:1006A0007A00826080937A0080917A0081608093E2
:1006B0007A0080917A00806880937A001092C1005D
:1006C000E091D301F091D40181E090E09C01009091
:1006D000DF0102C0220F331F0A94E2F72083E0916A
:1006E000CF01F091D0011082E091D101F091D201BF
:1006F0002FEC20831092E001E091D501F091D6011A
:1007000040819C010090DB0102C0220F331F0A943C
:10071000E2F7242B2083E091D501F091D6014081AE
:100720009C010090DC0102C0220F331F0A94E2F703
:10073000242B2083E091D501F091D60140819C01CA
:100740000090DD0102C0220F331F0A94E2F7242B30
:100750002083E091D501F091D60120810090DE0147
:1007600002C0880F991F0A94E2F780958223808344
:10077000E5EBF0E02491E1EAF0E08491882399F040
:1007800090E0880F991FFC01EA57FF4FA591B491A3
:10079000FC01E458FF4F859194918FB7F894EC9148
:1007A000E22BEC938FBFE4EBF0E02491E0EAF0E081
:1007B00084918823C1F090E0880F991FFC01EA57CB
:1007C000FF4FC591D491FC01E458FF4FA591B4911E
:1007D0009FB7F8948881E22FE0958E2388838C91CF
:1007E000E823EC939FBF42E0242E312CC2E2D0E0FC
:1007F00050E4852E52E4952E5FE0A52EB12C60E0EA
:1008000087E00E945201C1010197F1F761E087E0A2
:100810000E945201CE010197F1F760E087E00E944B
:100820005201E4EBF0E01491E0EAF0E0849190E012
:10083000880F991F80579F4F40E050E0BA01FC019C
:10084000A591B4912C912123121317C04F5F5F4FD4
:100850006F4F7F4F4134F2E45F07FFE06F07710590
:1008600071F73FC04F5F5F4F6F4F7F4F413422E4BE
:1008700052072FE062077105A1F1FC01A591B49127
:100880002C9121231213EECF75016401C41AD50AED
:10089000E60AF70A20E030E0A901FC01A591B49135
:1008A0006C91612316130AC02C153D054E055F059A
:1008B000C1F02F5F3F4F4F4F5F4FEFCFA5E1B0E04B
:1008C0000E94CB07DC01CB014096A11DB11DBC01EC
:1008D000CD0124E096958795779567952A95D1F770
:1008E00003C060E070E0CB010E94800620E030E0B1
:1008F00048E652E40E94D8056093330170933401B6
:10090000809335019093360180E191E00E94C4010B
:10091000C0903301D0903401E0903501F090360161
:10092000A7019601C701B6010E94A407882319F008
:100930008CE191E01AC026013701E89477F82FEF97
:100940003FEF4FE75FE7C301B2010E94A4078111A7
:100950000FC02FEF3FEF4FE75FE7C301B2010E94E7
:10096000D30518162CF480E291E00E94C40181C0E6
:100970002FEF3FEF4FE75FE4C701B6010E94320758
:1009800018161CF484E291E0F0CF2FEF3FEF4FE711
:100990005FECC701B6010E94D30587FDF3CF20E0CD
:1009A00030E0A901C701B6010E94D30587FF09C045
:1009B0006DE28FEB91E00E948D00F7FAF094F7F86A
:1009C000F0942AE037ED43EA5BE3C701B6010E94E9
:1009D00067056B017C010E9451062B013C010E94BE
:1009E00080069B01AC01C701B6010E9466056B0140
:1009F0007C014AE0C301B2010E94D60188E291E085
:100A00000E94C40113E01150A1F120E030E040E267
:100A100051E4C701B6010E9437072B013C010E9437
:100A20004A066B01770FEE08FF08F7FE10C06DE273
:100A30008FEB91E00E948D0088279927DC018C19AB
:100A40009D09AE09BF094AE0BC01CD0103C04AE0DF
:100A5000C701B6010E94D601C701B6010E948206F5
:100A60009B01AC01C301B2010E9466056B017C01D0
:100A7000CACF6DE08FEB91E00E948D006AE08FEBB2
:100A800091E00E948D000E949F017B0188EC482E1E
:100A9000512C612C712C0E949F016E197F09683EB8
:100AA0007340C8F3E1E04E1A510861087108F8E19B
:100AB000EF1AFCEFFF0A411451046104710459F765
:100AC0000E9426019CCEF8940C94EB075058BB274B
:100AD000AA270E947E050C94F8060E94EA0638F0C8
:100AE0000E94F10620F039F49F3F19F426F40C948B
:100AF000E7060EF4E095E7FB0C94E106E92F0E946F
:100B0000090758F3BA17620773078407950720F09F
:100B100079F4A6F50C942B070EF4E0950B2EBA2F62
:100B2000A02D0B01B90190010C01CA01A0011124F3
:100B3000FF27591B99F0593F50F4503E68F11A169F
:100B4000F040A22F232F342F4427585FF3CF469530
:100B500037952795A795F0405395C9F77EF41F1652
:100B6000BA0B620B730B840BBAF09150A1F0FF0F1C
:100B7000BB1F661F771F881FC2F70EC0BA0F621F08
:100B8000731F841F48F4879577956795B795F795F8
:100B90009E3F08F0B0CF9395880F08F09927EE0F8D
:100BA0009795879508950E94BD0608F481E0089501
:100BB0000E94EC050C94F8060E94F10658F00E9481
:100BC000EA0640F029F45F3F29F00C94E106511148
:100BD0000C942C070C94E7060E94090768F39923EC
:100BE000B1F3552391F3951B550BBB27AA27621729
:100BF0007307840738F09F5F5F4F220F331F441F36
:100C0000AA1FA9F335D00E2E3AF0E0E832D0915069
:100C10005040E695001CCAF72BD0FE2F29D0660F56
:100C2000771F881FBB1F261737074807AB07B0E899
:100C300009F0BB0B802DBF01FF2793585F4F3AF09F
:100C40009E3F510578F00C94E1060C942C075F3F11
:100C5000E4F3983ED4F3869577956795B795F79525
:100C60009F5FC9F7880F911D9695879597F908950D
:100C7000E1E0660F771F881FBB1F621773078407A9
:100C8000BA0720F0621B730B840BBA0BEE1F88F7B8
:100C9000E09508950E9451066894B1110C942C07B8
:100CA00008950E94110788F09F5798F0B92F99274F
:100CB000B751B0F0E1F0660F771F881F991F1AF047
:100CC000BA95C9F714C0B13091F00E942B07B1E07A
:100CD00008950C942B07672F782F8827B85F39F079
:100CE000B93FCCF3869577956795B395D9F73EF4E0
:100CF00090958095709561957F4F8F4F9F4F089588
:100D0000E89409C097FB3EF49095809570956195A5
:100D10007F4F8F4F9F4F9923A9F0F92F96E9BB275B
:100D20009395F695879577956795B795F111F8CFD7
:100D3000FAF4BB0F11F460FF1BC06F5F7F4F8F4F42
:100D40009F4F16C0882311F096E911C0772321F038
:100D50009EE8872F762F05C0662371F096E8862FD0
:100D600070E060E02AF09A95660F771F881FDAF727
:100D7000880F9695879597F90895990F0008550F54
:100D8000AA0BE0E8FEEF16161706E807F907C0F011
:100D900012161306E407F50798F0621B730B840B19
:100DA000950B39F40A2661F0232B242B252B21F4F3
:100DB00008950A2609F4A140A6958FEF811D811D93
:100DC000089597F99F6780E870E060E008959FEFCD
:100DD00080EC089500240A941616170618060906D2
:100DE000089500240A9412161306140605060895A1
:100DF000092E0394000C11F4882352F0BB0F40F429
:100E0000BF2B11F460FF04C06F5F7F4F8F4F9F4F68
:100E1000089557FD9058440F551F59F05F3F71F0EA
:100E20004795880F97FB991F61F09F3F79F0879551
:100E30000895121613061406551FF2CF4695F1DFDA
:100E400008C0161617061806991FF1CF869571056A
:100E5000610508940895E894BB2766277727CB019E
:100E600097F908950E94BD0608F48FEF08950E9437
:100E70004A070C94F8060E94EA0638F00E94F10630
:100E800020F0952311F00C94E1060C94E706112450
:100E90000C942C070E94090770F3959FC1F3950FDE
:100EA00050E0551F629FF001729FBB27F00DB11DEE
:100EB000639FAA27F00DB11DAA1F649F6627B00D7E
:100EC000A11D661F829F2227B00DA11D621F739F67
:100ED000B00DA11D621F839FA00D611D221F749F75
:100EE0003327A00D611D231F849F600D211D822FBC
:100EF000762F6A2F11249F5750409AF0F1F08823E3
:100F00004AF0EE0FFF1FBB1F661F771F881F91500F
:100F10005040A9F79E3F510580F00C94E1060C94D7
:100F20002C075F3FE4F3983ED4F386957795679559
:100F3000B795F795E7959F5FC1F7FE2B880F911D39
:100F40009695879597F908950E94BD06880B990B91
:100F50000895A1E21A2EAA1BBB1BFD010DC0AA1FFA
:100F6000BB1FEE1FFF1FA217B307E407F50720F012
:100F7000A21BB30BE40BF50B661F771F881F991F8D
:100F80001A9469F760957095809590959B01AC01D6
:100F9000BD01CF0108950E94DC07A59F900DB49F6D
:100FA000900DA49F800D911D11240895EE0FFF1F39
:100FB0000590F491E02D0994A29FB001B39FC00168
:100FC000A39F700D811D1124911DB29F700D811D75
:0A0FD0001124911D0895F894FFCF3D
:100FDA00000000008D002A011601DA00FA00CF0095
:100FEA0044697374616E6365203A20006E616E0015
:0A0FFA00696E66006F7666002E0037
:00000001FF
