:100000000C9462000C948A000C948A000C948A0070
:100010000C948A000C948A000C948A000C948A0038
:100020000C948A000C948A000C948A000C948A0028
:100030000C948A000C948A000C948A000C948A0018
:100040000C94D3010C948A000C9458020C941D0259
:100050000C948A000C948A000C948A000C948A00F8
:100060000C948A000C948A000000000023002600F3
:100070002900000000070002010000030406000040
:1000800000000000000000000000250028002B00F8
:1000900000000000240027002A00040404040404D3
:1000A0000404020202020202030303030303010227
:1000B00004081020408001020408102001020408F6
:1000C0001020920211241FBECFEFD8E0DEBFCDBFBB
:1000D00011E0A0E0B1E0E8EBFAE002C005900D927B
:1000E000AA32B107D9F721E0AAE2B1E001C01D921E
:1000F000A53EB207E1F710E0C2E6D0E004C02197C8
:10010000FE010E945405C136D107C9F70E94D502ED
:100110000C9430040C94000008950F931F93CF9318
:10012000DF93FC01A685B7858D01005C1F4FE801B8
:100130008881998101968F739927AD014E5B5F4F3E
:10014000EA012881398128173907D1F3E80128818C
:100150003981A20FB31F6C93A685B785A05CBF4FF2
:1001600011969C938E93A689B7892C9181E090E09B
:10017000078C02C0880F991F0A94E2F7822B8C9398
:1001800081E081A30488F589E02D808180648083EB
:1001900081E090E0DF91CF911F910F910895FC01D4
:1001A00081A1882329F0A489B5898C9186FFFBCF92
:1001B00011A20895FC01A485B585FD01E05CFF4F07
:1001C000208131813296808191812817390779F019
:1001D00080819181A80FB91F8C91208131812F5F7F
:1001E0003F4F2F7333273183208390E008958FEFA3
:1001F0009FEF0895DC011C96ED91FC911D97DF01A6
:10020000A05CBF4F2D913C91119712968D919C91BE
:1002100011972817390739F08D919C91E80FF91F34
:10022000808190E008958FEF9FEF0895FC01248571
:100230003585F901E05CFF4F808191813296208104
:100240003181821B930B8F73992708958DEB91E079
:100250000C941601CF92DF92EF92FF920F931F93AF
:10026000CF93DF936C01EB017B01E40EF51E00E000
:1002700010E0CE15DF0561F06991D601ED91FC919A
:100280000190F081E02DC6010995080F191FF1CFEB
:10029000C801DF91CF911F910F91FF90EF90DF90F8
:1002A000CF900895833081F028F4813099F0823026
:1002B000A1F008958630A9F08730B9F08430D1F4E8
:1002C000809180008F7D03C0809180008F77809324
:1002D0008000089584B58F7702C084B58F7D84BD7A
:1002E00008958091B0008F7703C08091B0008F7D1A
:1002F0008093B0000895CF93DF93282F30E0F90169
:10030000EE58FF4F8491F901E255FF4FD491F90166
:10031000E656FF4FC491CC2391F081110E94520107
:10032000EC2FF0E0EE0FFF1FE859FF4FA591B491BD
:10033000EC91ED2381E090E021F480E002C080E0C8
:1003400090E0DF91CF9108951F93CF93DF93282FF3
:1003500030E0F901EE58FF4F8491F901E255FF4F6B
:10036000D491F901E656FF4FC491CC23C1F0162F6A
:1003700081110E945201EC2FF0E0EE0FFF1FEA57AF
:10038000FF4FA591B4919FB7F894111104C08C91BF
:10039000D095D82302C0EC91DE2BDC939FBFDF9178
:1003A000CF911F9108951F920F920FB60F921124B3
:1003B0002F933F938F939F93AF93BF93809131017E
:1003C00090913201A0913301B0913401309130010C
:1003D00023E0230F2D3720F40196A11DB11D05C088
:1003E00026E8230F0296A11DB11D209330018093B2
:1003F000310190933201A0933301B0933401809185
:100400002C0190912D01A0912E01B0912F01019608
:10041000A11DB11D80932C0190932D01A0932E015D
:10042000B0932F01BF91AF919F918F913F912F91E9
:100430000F900FBE0F901F9018951F920F920FB63E
:100440000F9211242F933F938F939F93EF93FF93DA
:10045000209175013091760180917701909178011A
:100460002817390731F48091C1008F7D8093C10036
:1004700014C0E0917701F0917801EB5CFE4F208190
:10048000809177019091780101968F7399279093CD
:100490007801809377012093C600FF91EF919F919F
:1004A0008F913F912F910F900FBE0F901F90189535
:1004B0001F920F920FB60F9211242F934F935F93B9
:1004C0008F939F93EF93FF938091C00082FD1CC098
:1004D0002091C6008091B9019091BA014091BB0171
:1004E0005091BC0101968F7399274817590771F0F5
:1004F000E091B901F091BA01E758FE4F2083909343
:10050000BA018093B90102C08091C600FF91EF91BA
:100510009F918F915F914F912F910F900FBE0F90F0
:100520001F901895EDEBF1E01382128288EE93E0B4
:10053000A0E0B0E084839583A683B78382E191E055
:100540009183808389E791E09587848785E391E0B3
:100550009787868785EC90E0918B808B84EC90E088
:10056000938B828B80EC90E0958B848B81EC90E078
:10057000978B868B82EC90E0918F808F86EC90E059
:10058000938F828F84E0848F83E0858F87E0868FCE
:1005900085E0878F81E080A38CE090E00E943304A7
:1005A0009093E0018093DF010895789484B5826090
:1005B00084BD84B5816084BD85B5826085BD85B507
:1005C000816085BD80916E00816080936E00109285
:1005D0008100809181008260809381008091810000
:1005E0008160809381008091800081608093800091
:1005F0008091B10084608093B1008091B0008160EF
:100600008093B00080917A00846080937A0080911A
:100610007A00826080937A0080917A008160809372
:100620007A0080917A00806880937A001092C100ED
:1006300010922B0110922A0120912A0130912B0156
:10064000263031050CF06CC0C9010596A901440F94
:10065000551FE091DF01F091E001E40FF51F918358
:10066000808323303105F4F49927FC01E255FF4FD4
:100670002491FC01E656FF4F8491882399F090E085
:10068000880F991FFC01E057FF4FA591B491FC0121
:10069000EA57FF4F859194918FB7F894EC91E22B34
:1006A000EC938FBF80912A0190912B0183309105AB
:1006B0006CF1880F991FE091DF01F091E001E80FE4
:1006C000F91F808191819927FC01E255FF4F249108
:1006D000FC01E656FF4F84918823C1F090E0880F1B
:1006E000991FFC01E057FF4FC591D491FC01EA57D7
:1006F000FF4FA591B4919FB7F8948881322F309520
:1007000083238883EC91E22BEC939FBF80912A0195
:1007100090912B01019690932B0180932A018CCF0D
:10072000E091D101F091D20181E090E09C01009034
:10073000DD0102C0220F331F0A94E2F72083E0910B
:10074000CD01F091CE011082E091CF01F091D00166
:100750002FEC20831092DE01E091D301F091D401BF
:1007600040819C010090D90102C0220F331F0A94DE
:10077000E2F7242B2083E091D301F091D401408152
:100780009C010090DA0102C0220F331F0A94E2F7A5
:10079000242B2083E091D301F091D40140819C016E
:1007A0000090DB0102C0220F331F0A94E2F7242BD2
:1007B0002083E091D301F091D40120810090DC01ED
:1007C00002C0880F991F0A94E2F7809582238083E4
:1007D000C091DF01D091E0018E810E947B017C01FC
:1007E000092E000CAA0BBB0B80930401909305010A
:1007F000A0930601B093070188850E947B018C01BC
:10080000092E000CAA0BBB0B8093000190930101F1
:10081000A0930201B09303018A850E947B01682F97
:100820008C810E94A4016E2D8A810E94A401602FF8
:1008300088810E94A4014AE050E06EE171E08DEBF6
:1008400091E00E942A016DE08DEB91E00E948D0005
:100850006AE08DEB91E00E948D000E942601B8CFE6
:10086000F8940C945A050F931F93CF93DF93823023
:10087000910510F482E090E0E091E301F091E40151
:1008800020E030E0A0E0B0E0309719F140815181E4
:100890000281138148175907C8F08417950769F436
:1008A000109731F012960C93129713961C9327C051
:1008B0000093E3011093E40122C02115310519F0E2
:1008C0004217530718F49A01BD01EF01DF01F80147
:1008D000DBCF21153105F9F0281B390B2430310508
:1008E00080F48A819B816115710521F0FB0193835E
:1008F000828304C09093E4018093E301FE01329669
:1009000044C0FE01E20FF31F8193919322503109FD
:10091000398328833AC02091E1013091E201232BF1
:1009200041F420910A0130910B013093E2012093B0
:10093000E10120910801309109012115310541F4AF
:100940002DB73EB740910C0150910D01241B350B82
:10095000E091E101F091E201E217F307A0F42E1B10
:100960003F0B2817390778F0AC014E5F5F4F241713
:10097000350748F04E0F5F1F5093E2014093E101AD
:100980008193919302C0E0E0F0E0CF01DF91CF913D
:100990001F910F910895CF93DF93009709F481C0C1
:1009A000FC01329713821282A091E301B091E4011D
:1009B000109781F420813181820F931F2091E101F2
:1009C0003091E2012817390751F5F093E201E093E5
:1009D000E10167C0ED0120E030E0CE17DF0740F411
:1009E0004A815B819E0141155105F1F0EA01F5CF85
:1009F000D383C28340815181840F951FC817D907C3
:100A000059F488819981840F951F02969183808380
:100A10008A819B81938382832115310529F4F09388
:100A2000E401E093E3013DC0E901FB83EA834991DE
:100A30005991C40FD51FEC17FD0761F48081918196
:100A4000840F951F0296E90199838883828193819F
:100A50009B838A83E0E0F0E012968D919C9113973E
:100A6000009719F0FD01DC01F7CF8D919C91119752
:100A70009D012E5F3F4F820F931F2091E101309126
:100A8000E2012817390769F4309729F41092E4013C
:100A90001092E30102C013821282B093E201A0938C
:100AA000E101DF91CF910895EE0FFF1F0590F491C2
:080AB000E02D0994F894FFCF3A
:100AB80001000000010000000000E5012000000026
:100AC80000008D002A011601DA00FA00CF004865FF
:0A0AD8006C6C6F207A616B20000047
:00000001FF
