:100000000C945E000C9486000C9486000C94860080
:100010000C9486000C9486000C9486000C940B03C0
:100020000C9486000C9486000C9486000C94860038
:100030000C9486000C9486000C9486000C94860028
:100040000C948D030C9486000C94D1020C949602AF
:100050000C9486000C9486000C9486000C94860008
:100060000C9486000C94860000000007000201003A
:100070000003040600000000000000000200000071
:1000800000250028002B0000000000240027002A83
:100090000004040404040404040202020202020331
:1000A000030303030301020408102040800102043B
:1000B00008102001020408102000D70311241FBEDD
:1000C000CFEFD8E0DEBFCDBF11E0A0E0B1E0E8ECBB
:1000D000F0E102C005900D92AA33B107D9F722E0F2
:1000E000AAE3B1E001C01D92AA30B207E1F710E027
:1000F000CEE5D0E004C02197FE010E945C08CD351A
:10010000D107C9F70E9412040C94E1070C94000077
:1001100090E0FC01EB55FF4F2491FC01EF56FF4F9F
:100120008491882399F090E0880F991FFC01E9578A
:10013000FF4FA591B491FC01E358FF4F8591949135
:100140008FB7F894EC91E22BEC938FBF0895CF9288
:10015000DF92EF92FF920F931F93CF93DF936C0187
:10016000EB017B01E40EF51E00E010E0CE15DF058B
:1001700061F06991D601ED91FC910190F081E02D43
:10018000C6010995080F191FF1CFC801DF91CF9162
:100190001F910F91FF90EF90DF90CF9008950895F9
:1001A0000F931F93CF93DF93FC01A685B7858D0135
:1001B000005C1F4FE8018881998101968F73992710
:1001C000AD014E5B5F4FEA0128813981281739075D
:1001D000D1F3E80128813981A20FB31F6C93A68562
:1001E000B785A05CBF4F11969C938E93A689B78963
:1001F0002C9181E090E0078C02C0880F991F0A942F
:10020000E2F7822B8C9381E081A30488F589E02DAD
:1002100080818064808381E090E0DF91CF911F91A5
:100220000F910895FC0181A1882329F0A489B58943
:100230008C9186FFFBCF11A20895FC01A485B585A2
:10024000FD01E05CFF4F20813181329680819181F8
:100250002817390779F080819181A80FB91F8C91F7
:10026000208131812F5F3F4F2F73332731832083CC
:1002700090E008958FEF9FEF0895DC011C96ED91BB
:10028000FC911D97DF01A05CBF4F2D913C91119710
:1002900012968D919C9111972817390739F08D91FD
:1002A0009C91E80FF91F808190E008958FEF9FEFF8
:1002B0000895FC0124853585F901E05CFF4F8081BC
:1002C0009181329620813181821B930B8F73992704
:1002D000089588EE91E00C94590190E0FC01E859F2
:1002E000FF4F2491FC01EB55FF4F3491FC01EF5679
:1002F000FF4FE491EE2309F43CC0222339F123306F
:1003000091F038F42130A9F0223001F584B58F7DC9
:1003100012C0263091F02730A1F02430B9F480913A
:1003200080008F7D03C0809180008F778093800054
:100330000DC084B58F7784BD09C08091B0008F77E0
:1003400003C08091B0008F7D8093B000F0E0EE0F8D
:10035000FF1FE358FF4FA591B4919FB7F894611127
:1003600004C08C913095382302C0EC913E2B3C9315
:100370009FBF08953FB7F89480913B0190913C0155
:10038000A0913D01B0913E0126B5A89B05C02F3F2D
:1003900019F00196A11DB11D3FBFBA2FA92F982FAB
:1003A0008827820F911DA11DB11DBC01CD0142E026
:1003B000660F771F881F991F4A95D1F70895CF922E
:1003C000DF92EF92FF92CF93DF936B017C010E944B
:1003D000BA01EB01C114D104E104F10479F00E94E7
:1003E000BA016C1B7D0B683E7340A0F381E0C81A14
:1003F000D108E108F108C851DC4FECCFDF91CF9173
:10040000FF90EF90DF90CF900895CF93C62F60E0DC
:1004100089E00E946D0160E08AE00E946D0160E069
:100420008BE00E946D0160E08CE00E946D0161E054
:100430008C2FCF910C946D01CF93DF93D82FC2E016
:100440006D2F8C2F0E946D01CF5FC930C9F7DF91EE
:10045000CF91089580E090E00E941C0261E087E067
:100460000C946D0180E090E00C941C0281E090E01F
:100470000E941C0260E085E00E946D0160E084E063
:100480000E946D0160E083E00C946D0180E090E0DB
:100490000E941C0261E084E00C946D0180E090E019
:1004A0000E941C0261E084E00E946D0161E087E02F
:1004B0000C946D0180E090E00E941C0261E085E0F8
:1004C0000E946D0161E087E00E946D0161E082E0C1
:1004D0000C946D0180E090E00E941C0261E086E0D7
:1004E0000E946D0161E087E00C946D0180E090E076
:1004F0000E941C0261E086E00E946D0161E083E0E1
:100500000C946D0181E090E00E941C0260E083E0A9
:100510000E946D0160E084E00C946D0180E090E049
:100520000E941C0261E088E00C946D011F920F9202
:100530000FB60F9211242F933F938F939F93EF93B6
:10054000FF932091A0013091A1018091A20190918F
:10055000A3012817390731F48091C1008F7D809362
:10056000C10014C0E091A201F091A301E05AFE4F36
:1005700020818091A2019091A30101968F73992708
:100580009093A3018093A2012093C600FF91EF9165
:100590009F918F913F912F910F900FBE0F901F90C1
:1005A00018951F920F920FB60F9211242F934F930D
:1005B0005F938F939F93EF93FF938091C00082FD91
:1005C0001CC02091C6008091E4019091E50140910A
:1005D000E6015091E70101968F7399274817590753
:1005E00071F0E091E401F091E501EC55FE4F2083BC
:1005F0009093E5018093E40102C08091C600FF91D1
:10060000EF919F918F915F914F912F910F900FBE1E
:100610000F901F9018951F920F920FB60F921124F2
:100620002F933F934F935F936F937F938F939F93FA
:10063000AF93BF93EF93FF9380914801909149014D
:10064000A0914A01B0914B01892B8A2B8B2B59F138
:1006500090914301E0914401F09145018081892707
:1006600080838091480190914901A0914A01B09105
:100670004B01181619061A061B060CF03DC0809196
:10068000480190914901A0914A01B0914B01019715
:10069000A109B1098093480190934901A0934A01AF
:1006A000B0934B0129C080910001ECE7F0E0E491A8
:1006B0009FEF90930001E130B9F098F0E230C9F477
:1006C000909170009D7F9093700091E09093B000A6
:1006D0009091B100987F94609093B1001092B30014
:1006E00008C010926E0005C090916F009D7F90939E
:1006F0006F0060E00E946D01FF91EF91BF91AF919B
:100700009F918F917F916F915F914F913F912F9129
:100710000F900FBE0F901F9018951F920F920FB65B
:100720000F9211242F933F938F939F93AF93BF9377
:1007300080913F0190914001A0914101B09142010F
:1007400030913A0123E0230F2D3720F40196A11DAB
:10075000B11D05C026E8230F0296A11DB11D2093EF
:100760003A0180933F0190934001A0934101B093DF
:10077000420180913B0190913C01A0913D01B091DB
:100780003E010196A11DB11D80933B0190933C0158
:10079000A0933D01B0933E01BF91AF919F918F9186
:1007A0003F912F910F900FBE0F901F901895E8EE7C
:1007B000F1E01382128288EE93E0A0E0B0E084833F
:1007C0009583A683B7838DE291E09183808384EA49
:1007D00091E09587848780E691E09787868785EC0E
:1007E00090E0918B808B84EC90E0938B828B80ECFB
:1007F00090E0958B848B81EC90E0978B868B82ECDC
:1008000090E0918F808F86EC90E0938F828F84E0D0
:10081000848F83E0858F87E0868F85E0878F81E0F6
:1008200080A30895CF93DF93CDB7DEB729970FB696
:10083000F894DEBF0FBECDBF789484B5826084BDCE
:1008400084B5816084BD85B5826085BD85B58160D4
:1008500085BD80916E00816080936E001092810052
:10086000809181008260809381008091810081600D
:1008700080938100809180008160809380008091CE
:10088000B10084608093B1008091B000816080935A
:10089000B00080917A00846080937A0080917A0021
:1008A000826080937A0080917A00816080937A00E0
:1008B00080917A00806880937A001092C10022E0D3
:1008C000298389810E94880039813F5F39833E30C6
:1008D000C1F7E091FC01F091FD0181E090E09C0105
:1008E0000090080202C0220F331F0A94E2F720830F
:1008F000E091F801F091F9011082E091FA01F09194
:10090000FB012FEC208310920902E091FE01F0918F
:10091000FF0140819C010090040202C0220F331F9E
:100920000A94E2F7242B2083E091FE01F091FF016D
:1009300040819C010090050202C0220F331F0A94DF
:10094000E2F7242B2083E091FE01F091FF0140812A
:100950009C010090060202C0220F331F0A94E2F7A6
:10096000242B2083E091FE01F091FF012081009073
:10097000070202C0880F991F0A94E2F7809582232C
:10098000808392E1492E9AE7592E612C712C40E424
:1009900040937C0080917A00806480937A008091FB
:1009A0007A0086FDFCCFC090780080917900D12C30
:1009B0001601382A8FB7F89420913F0130914001F9
:1009C00040914101509142012D833E834F835887CE
:1009D0008FBF80915C0190915D01A0915E01B0910B
:1009E0005F01281B390B4A0B5B0BDA01C901883EFA
:1009F0009340A105B10508F4D4C144EF51E0249E11
:100A0000C001259E900D349E900D11246FEF73E070
:100A10000E94E4078B01809100018D3021F08F3F0F
:100A200009F073C105C0ECE7F0E0F491F98774C0F8
:100A30008DE080930001ECE7F0E0F491F987FF3F4F
:100A400009F463C1F13009F443C040F1F23009F018
:100A500063C01092B0001092B1008091B00082602B
:100A60008093B0008091B10081608093B100EEE985
:100A7000F0E08491E82FF0E0EE0FFF1FE358FF4F06
:100A8000859194919093450180934401E2EBF0E0CD
:100A9000849180934301F2E0F9878FC214BC15BCA6
:100AA00084B5826084BD85B5816085BDEEE9F0E0E6
:100AB0008491E82FF0E0EE0FFF1FE358FF4F859180
:100AC0009491E2EBF0E0849180934701198675C21E
:100AD0001092800010928100809181008860809344
:100AE000810080918100816080938100EEE9F0E0D7
:100AF0008491E82FF0E0EE0FFF1FE358FF4F859140
:100B00009491E2EBF0E08491809346018DE00E94A5
:100B10008800F1E0F98782C0298527FDF6C08DE0C5
:100B20000E94880089858D7F09F078C04801A12C3A
:100B3000B12C60E072E18AE790E0A50194010E9487
:100B40001A0829833A834B835C8369017A0131E077
:100B5000C31AD108E108F1084FEFC416D104E1042B
:100B6000F10409F008F44EC060E472E48FE090E014
:100B7000A50194010E941A0869017A0181E0C81A4E
:100B8000D108E108F1089985923009F5AFEFCA164E
:100B9000D104E104F10409F008F4D8C160E970ED72
:100BA00083E090E0A50194010E941A0869017A018E
:100BB000B1E0CB1AD108E108F108EFEFCE16D1046D
:100BC000E104F10411F008F053C183E024C0FFEF09
:100BD000CF16D104E104F104B9F0B0F068E478EE86
:100BE00081E090E0A50194010E941A0869017A0150
:100BF00081E0C81AD108E108F1089985992309F420
:100C0000A9C173C181E001C082E0F985F11103C07F
:100C100085BD37C085E08093B10033C04801A12C69
:100C2000B12C60E072E18AE790E0A50194010E9496
:100C30001A0869017A0181E0C81AD108E108F108AF
:100C4000C114D10491E0E906F10488F068E478EE7B
:100C500081E090E0A50194010E941A0869017A01DF
:100C6000A1E0CA1AD108E108F10883E001C081E0DF
:100C7000B985B13031F490918100987F892B8093B0
:100C800081009801220F331FA4EFB1E00E943908C0
:100C900028EE33E040E050E00E94F807E985E130BB
:100CA00099F0E23019F1E11130C0C7BC2093500136
:100CB00030935101409352015093530180916E0043
:100CC000826080936E0021C0D0928900C09288001B
:100CD00020934C0130934D0140934E0150934F01AE
:100CE00080916F00826080936F000FC0C092B3004C
:100CF000209348013093490140934A0150934B019E
:100D0000809170008260809370002D813E814F81C0
:100D1000588520935C0130935D0140935E015093B0
:100D20005F0180915A0190915B0101968A30910593
:100D300029F090935B0180935A010DC010925B01E2
:100D400010925A0180915801909159010196909307
:100D500059018093580180915801909159010A9747
:100D600069F41092590110925801809156019091A6
:100D70005701019690935701809356018091560137
:100D8000909157010A9769F41092570110925601F9
:100D90008091540190915501019690935501809353
:100DA000540169E070E080E090E00E940502E0916B
:100DB0005A01F0915B01EE0FFF1FEE0FFF1FEF5F77
:100DC000FE4F0280F381E02D09956101330CEE089E
:100DD000FF08C701B6010E94DF016AE070E080E011
:100DE00090E00E940502E0915801F0915901EE0F48
:100DF000FF1FEE0FFF1FEF5FFE4F0280F381E02D1C
:100E00000995C701B6010E94DF016BE070E080E048
:100E100090E00E940502E0915601F0915701EE0F1B
:100E2000FF1FEE0FFF1FEF5FFE4F0280F381E02DEB
:100E30000995C701B6010E94DF016CE070E080E017
:100E400090E00E940502E0915401F0915501EE0FEF
:100E5000FF1FEE0FFF1FEF5FFE4F0280F381E02DBB
:100E60000995C701B6010E94DF010E9469018FCD7B
:100E700068E478EE81E090E0A50194010E941A08F0
:100E800069017A0181E0C81AD108E108F1089FEFF1
:100E9000C916D104E104F10431F128F164E274EFE0
:100EA00080E090E0A50194010E941A0869017A018E
:100EB000A1E0CA1AD108E108F108BFEFCB16D104AE
:100EC000E104F10409F008F4A5CEC301B201A501C3
:100ED00094010E941A0869017A01E1E0CE1AD10852
:100EE000E108F10816C084E096CE9FEFC916D10440
:100EF000E104F10469F160F1C301B201A5019401BB
:100F00000E941A0869017A0181E0C81AD108E10833
:100F1000F1082FEFC216D104E104F104A9F0A0F00A
:100F200089819A81AB81BC812AE0B595A795979577
:100F300087952A95D1F76C017D01F1E0CF1AD10890
:100F4000E108F10887E067CE86E065CE82E063CEF7
:100F500084E05BCEEFEFCE16D104E104F10459F149
:100F600050F1C301B201A50194010E941A08690160
:100F70007A01A1E0CA1AD108E108F108BFEFCB1647
:100F8000D104E104F104A9F0A0F089819A81AB8138
:100F9000BC813AE0B595A795979587953A95D1F795
:100FA0006C017D01E1E0CE1AD108E108F10885E08D
:100FB0002FCE84E02DCE83E02BCE8DE00E948800E2
:100FC000B5CDF8940C94620897FB072E16F40094A4
:100FD00007D077FD09D00E94480807FC05D03EF4F1
:100FE000909581959F4F0895709561957F4F0895D5
:100FF000A1E21A2EAA1BBB1BFD010DC0AA1FBB1F1D
:10100000EE1FFF1FA217B307E407F50720F0A21B8E
:10101000B30BE40BF50B661F771F881F991F1A94FB
:1010200069F760957095809590959B01AC01BD0125
:10103000CF010895052E97FB1EF400940E943108FD
:1010400057FD07D00E94F80707FC03D04EF40C941C
:10105000310850954095309521953F4F4F4F5F4F48
:10106000089590958095709561957F4F8F4F9F4F14
:101070000895A29FB001B39FC001A39F700D811D71
:101080001124911DB29F700D811D1124911D089591
:10109000AA1BBB1B51E107C0AA1FBB1FA617B7079E
:1010A00010F0A61BB70B881F991F5A95A9F78095BA
:1010B0009095BC01CD010895EE0FFF1F0590F491AE
:0810C000E02D0994F894FFCF24
:1010C800FF00008E02010082020200760203006A1D
:1010D8000204005A0205004E0206004602070036C6
:1010E800020800320209002A0200000000D000A70E
:0A10F8000059011D013D0112010025
:00000001FF
