:100000000C945E000C9486000C9486000C94860080
:100010000C9486000C9486000C9486000C94F602D6
:100020000C9486000C9486000C9486000C94860038
:100030000C9486000C9486000C9486000C94860028
:100040000C94D0030C9486000C949E030C947803BB
:100050000C9486000C9486000C9486000C94860008
:100060000C9486000C948600000000080002010039
:100070000003040700000000000000000200000070
:1000800000250028002B0000000000240027002A83
:100090000004040404040404040202020202020331
:1000A000030303030301020408102040800102043B
:1000B00008102001020408102000C70711241FBEE9
:1000C000CFEFD8E0DEBFCDBF11E0A0E0B1E0E8EFB8
:1000D000F0E102C005900D92AC33B107D9F721E0F1
:1000E000ACE3B1E001C01D92AF3FB207E1F710E011
:1000F000CEE5D0E004C02197FE010E947408CD3502
:10010000D107C9F70E941A040C94F4070C9400005C
:1001100090E0FC01EB55FF4F2491FC01EF56FF4F9F
:100120008491882399F090E0880F991FFC01E9578A
:10013000FF4FA591B491FC01E358FF4F8591949135
:100140008FB7F894EC91E22BEC938FBF0895CF9288
:10015000DF92EF92FF920F931F93CF93DF936C0187
:100160007A018B01C0E0D0E0CE15DF0581F0D80127
:100170006D918D01D601ED91FC910190F081E02D02
:10018000C6010995892B11F02196EECF7E01C7019A
:10019000DF91CF911F910F91FF90EF90DF90CF9063
:1001A0000895FC01538D448D252F30E0842F90E07D
:1001B000821B930B541710F0CF9608950197089562
:1001C000FC01918D828D981761F0828DDF01A80F5F
:1001D000B11D5D968C91928D9F5F9F73928F90E081
:1001E00008958FEF9FEF0895FC01918D828D9817F0
:1001F00031F0828DE80FF11D858D90E008958FEF2D
:100200009FEF0895FC01918D228D892F90E0805CF5
:100210009F4F821B91098F7399270895FC01848D4C
:10022000DF01A80FB11DA35ABF4F2C91848D90E020
:1002300001968F739927848FA689B7892C93A089FB
:10024000B1898C91837080648C93938D848D981385
:1002500006C00288F389E02D80818F7D8083089518
:10026000EF92FF920F931F93CF93DF93EC0181E006
:10027000888F9B8D8C8D981305C0E889F9898081C2
:1002800085FD26C0F62E0B8D10E00F5F1F4F0F73FC
:100290001127E02E8C8DE8120CC00FB607FCFACFA8
:1002A000E889F989808185FFF5CFCE010E940E0192
:1002B000F1CF8B8DFE01E80FF11DE35AFF4FF08265
:1002C0009FB7F8940B8FEA89FB89808180620AC00E
:1002D0009FB7F894EE89FF896083E889F989808166
:1002E0008370806480839FBF81E090E0DF91CF9135
:1002F0001F910F91FF90EF900895CF93DF93EC0142
:10030000888D8823C9F0EA89FB89808185FD05C035
:10031000A889B9898C9186FD0FC00FB607FCF5CF6F
:10032000808185FFF2CFA889B9898C9185FFEDCFB7
:10033000CE010E940E01E7CFDF91CF91089581E4B5
:1003400091E00E94020121E0892B09F420E0822F34
:10035000089580E090E0892B29F00E949F0181118F
:100360000C9400000895089580E090E0089590E0D6
:10037000FC01E859FF4F2491FC01EB55FF4F3491EC
:10038000FC01EF56FF4FE491EE2309F43CC0222319
:1003900039F1233091F038F42130A9F0223001F501
:1003A00084B58F7D12C0273091F02830A1F0243021
:1003B000B9F4809180008F7D03C0809180008F7799
:1003C000809380000DC084B58F7784BD09C0809173
:1003D000B0008F7703C08091B0008F7D8093B00014
:1003E000F0E0EE0FFF1FE358FF4FA591B4919FB7C8
:1003F000F894611104C08C913095382302C0EC91BF
:100400003E2B3C939FBF08953FB7F89480913D01E8
:1004100090913E01A0913F01B091400126B5A89B6B
:1004200005C02F3F19F00196A11DB11D3FBFBA2F86
:10043000A92F982F8827820F911DA11DB11DBC01E6
:10044000CD0142E0660F771F881F991F4A95D1F7AB
:1004500008958F929F92AF92BF92CF92DF92EF92C8
:10046000FF926B017C010E9404024B015C01C114EC
:10047000D104E104F104F1F00E940402DC01CB019B
:1004800088199909AA09BB09883E9340A105B105BD
:1004900070F321E0C21AD108E108F10888EE880E55
:1004A00083E0981EA11CB11CC114D104E104F10425
:1004B00019F7DDCFFF90EF90DF90CF90BF90AF9016
:1004C0009F908F900895CF93C62F60E089E00E949F
:1004D000B70160E08AE00E94B70160E08BE00E9413
:1004E000B70160E08CE00E94B70161E08C2FCF91F2
:1004F0000C94B701CF93DF93D82FC2E06D2F8C2FD0
:100500000E94B701CF5FC930C9F7DF91CF9108953D
:1005100080E090E00E947A0261E087E00C94B701ED
:1005200080E090E00C947A0281E090E00E947A02F0
:1005300060E085E00E94B70160E084E00E94B701BE
:1005400060E083E00C94B70180E090E00E947A02C2
:1005500061E084E00C94B70180E090E00E947A02B0
:1005600061E084E00E94B70161E087E00C94B7018C
:1005700080E090E00E947A0261E085E00E94B7018D
:1005800061E087E00E94B70161E082E00C94B7016E
:1005900080E090E00E947A0261E086E00E94B7016C
:1005A00061E087E00C94B70180E090E00E947A025D
:1005B00061E086E00E94B70161E083E00C94B7013E
:1005C00081E090E00E947A0260E083E00E94B7013F
:1005D00060E084E00C94B70180E090E00E947A0231
:1005E00061E088E00C94B7010E94F7071F920F9218
:1005F0000FB60F9211242F933F934F935F936F93F6
:100600007F938F939F93AF93BF93EF93FF938091CB
:10061000FB019091FC01A091FD01B091FE01892B9D
:100620008A2B8B2B59F19091FA01E091F801F0910E
:10063000F9018081892780838091FB019091FC01E1
:10064000A091FD01B091FE01181619061A061B06AD
:100650000CF03DC08091FB019091FC01A091FD0147
:10066000B091FE010197A109B1098093FB0190931C
:10067000FC01A093FD01B093FE0129C080912801E7
:10068000ECE7F0E0E4919FEF90932801E130B9F0BE
:1006900098F0E230C9F4909170009D7F90937000C3
:1006A00091E09093B0009091B100987F9460909306
:1006B000B1001092B30008C010926E0005C0909176
:1006C0006F009D7F90936F0060E00E94B701FF91E3
:1006D000EF91BF91AF919F918F917F916F915F91BA
:1006E0004F913F912F910F900FBE0F901F90189533
:1006F0001F920F920FB60F9211242F933F934F9397
:100700005F936F937F938F939F93AF93BF93EF9379
:10071000FF9381E491E00E940E01FF91EF91BF9160
:10072000AF919F918F917F916F915F914F913F9189
:100730002F910F900FBE0F901F9018951F920F9240
:100740000FB60F9211242F938F939F93EF93FF93E4
:10075000E0915101F09152018081E0915701F091B7
:10076000580182FD12C0908180915A018F5F8F7372
:1007700020915B01821751F0E0915A01F0E0EF5BAC
:10078000FE4F958F80935A0101C08081FF91EF91B8
:100790009F918F912F910F900FBE0F901F901895E2
:1007A0001F920F920FB60F9211242F933F938F93A6
:1007B0009F93AF93BF938091DE019091DF01A09151
:1007C000E001B091E10130913C0123E0230F2D378E
:1007D00020F40196A11DB11D05C026E8230F029645
:1007E000A11DB11D20933C018093DE019093DF0198
:1007F000A093E001B093E10180913D0190913E0111
:10080000A0913F01B09140010196A11DB11D8093BF
:100810003D0190933E01A0933F01B0934001BF91F1
:10082000AF919F918F913F912F910F900FBE0F909D
:100830001F901895CF93DF93CDB7DEB729970FB6EA
:10084000F894DEBF0FBECDBF789484B5826084BDBE
:1008500084B5816084BD85B5826085BD85B58160C4
:1008600085BD80916E00816080936E001092810042
:1008700080918100826080938100809181008160FD
:1008800080938100809180008160809380008091BE
:10089000B10084608093B1008091B000816080934A
:1008A000B00080917A00846080937A0080917A0011
:1008B000826080937A0080917A00816080937A00D0
:1008C00080917A00806880937A001092C10022E0C3
:1008D000298389810E94880039813F5F39833E30B6
:1008E000C1F7E0915101F091520182E08083E091E3
:1008F0004D01F0914E011082E0914F01F0915001B5
:100900008FEC808310925901E0915501F0915601CE
:1009100086E08083E0915301F091540180818061F1
:100920008083E0915301F09154018081886080833D
:10093000E0915301F0915401808180688083E091BF
:100940005301F091540180818F7D808392E1492E83
:100950009AE7592E612C712C40E440937C008091E1
:100960007A00806480937A0080917A0086FDFCCFC3
:1009700020907800309079008FB7F8942091DE01B4
:100980003091DF014091E0015091E1012D833E83E0
:100990004F8358878FBF8091F4019091F501A0910A
:1009A000F601B091F701281B390B4A0B5B0BDA01FA
:1009B000C901883E9340A105B10508F4D8C144E6B9
:1009C000429DC001439D900D11246FEF73E00E9482
:1009D000FC078B01809128018D3021F08F3F09F0B9
:1009E0007AC105C0ECE7F0E0F491F98774C08DE0BE
:1009F00080932801ECE7F0E0F491F987FF3F09F4D8
:100A00006AC1F13009F443C040F1F23009F063C02B
:100A10001092B0001092B1008091B000826080937B
:100A2000B0008091B10081608093B100EEE9F0E008
:100A30008491E82FF0E0EE0FFF1FE358FF4F859100
:100A400094919093F9018093F801E2EBF0E08491A6
:100A50008093FA01F2E0F98796C214BC15BC84B504
:100A6000826084BD85B5816085BDEEE9F0E084914A
:100A7000E82FF0E0EE0FFF1FE358FF4F85919491B0
:100A8000E2EBF0E084918093E30119867CC210923E
:100A900080001092810080918100886080938100A5
:100AA00080918100816080938100EEE9F0E0849183
:100AB000E82FF0E0EE0FFF1FE358FF4F8591949170
:100AC000E2EBF0E084918093E2018DE00E948800E7
:100AD000F1E0F98789C0298527FDFDC08DE00E94DE
:100AE000880089858D7F09F07FC04801A12CB12C39
:100AF00060E072E18AE790E0A50194010E9432086B
:100B000029833A834B835C8369017A0131E0C31AFC
:100B1000D108E108F1084FEFC416D104E104F10453
:100B200009F008F44EC060E472E48FE090E0A501A3
:100B300094010E94320869017A0181E0C81AD10843
:100B4000E108F1089985923009F5AFEFCA16D10492
:100B5000E104F10409F008F4DFC160E970ED83E01D
:100B600090E0A50194010E94320869017A01B1E088
:100B7000CB1AD108E108F108EFEFCE16D104E10459
:100B8000F10411F008F05AC183E027C0FFEFCF163F
:100B9000D104E104F104B9F0B0F068E478EE81E04A
:100BA00090E0A50194010E94320869017A0181E078
:100BB000C81AD108E108F1089985992309F4B0C150
:100BC0007AC181E001C082E0F985F11106C095B5D6
:100BD000987F892B85BD3BC085E09091B100987FBF
:100BE000892B8093B10033C04801A12CB12C60E067
:100BF00072E18AE790E0A50194010E943208690140
:100C00007A0181E0C81AD108E108F108C114D104C1
:100C100091E0E906F10488F068E478EE81E090E084
:100C2000A50194010E94320869017A01A1E0CA1A63
:100C3000D108E108F10883E001C081E0B985B13055
:100C400031F490918100987F892B809381009801E5
:100C5000220F331FA4EFB1E00E94510828EE33E0C9
:100C600040E050E00E941008E985E13099F0E23060
:100C700019F1E11130C0C7BC2093E8013093E901BC
:100C80004093EA015093EB0180916E008260809363
:100C90006E0021C0D0928900C09288002093E401A8
:100CA0003093E5014093E6015093E70180916F0096
:100CB000826080936F000FC0C092B3002093FB014D
:100CC0003093FC014093FD015093FE018091700030
:100CD0008260809370002D813E814F8158852093E2
:100CE000F4013093F5014093F6015093F7018091A0
:100CF000F2019091F30101968A30910529F09093C9
:100D0000F3018093F2010DC01092F3011092F201F1
:100D10008091F0019091F10101969093F1018093FF
:100D2000F0018091F0019091F1010A9769F410921D
:100D3000F1011092F0018091EE019091EF01019686
:100D40009093EF018093EE018091EE019091EF017D
:100D50000A9769F41092EF011092EE018091EC0174
:100D60009091ED0101969093ED018093EC0169E083
:100D700070E080E090E00E946302E091F201F09167
:100D8000F301EE0FFF1FEE0FFF1FE050FF4F028039
:100D9000F381E02D09956101330CEE08FF08C701CE
:100DA000B6010E9429026AE070E080E090E00E94B3
:100DB0006302E091F001F091F101EE0FFF1FEE0FE1
:100DC000FF1FE050FF4F0280F381E02D0995C7011E
:100DD000B6010E9429026BE070E080E090E00E9482
:100DE0006302E091EE01F091EF01EE0FFF1FEE0FB5
:100DF000FF1FE050FF4F0280F381E02D0995C701EE
:100E0000B6010E9429026CE070E080E090E00E9450
:100E10006302E091EC01F091ED01EE0FFF1FEE0F88
:100E2000FF1FE050FF4F0280F381E02D0995C701BD
:100E3000B6010E9429020E94A9018ECD68E478EED5
:100E400081E090E0A50194010E94320869017A01D5
:100E500081E0C81AD108E108F1089FEFC916D10452
:100E6000E104F10431F128F164E274EF80E090E0F4
:100E7000A50194010E94320869017A01A1E0CA1A11
:100E8000D108E108F108BFEFCB16D104E104F10469
:100E900009F008F4A1CEC301B201A50194010E949A
:100EA000320869017A01E1E0CE1AD108E108F108BF
:100EB00016C084E092CE9FEFC916D104E104F1047C
:100EC00069F160F1C301B201A50194010E943208E9
:100ED00069017A0181E0C81AD108E108F1082FEF11
:100EE000C216D104E104F104A9F0A0F089819A812D
:100EF000AB81BC812AE0B595A795979587952A95F2
:100F0000D1F76C017D01F1E0CF1AD108E108F108B9
:100F100087E063CE86E061CE82E05FCE84E054CE8F
:100F2000EFEFCE16D104E104F10459F150F1C30101
:100F3000B201A50194010E94320869017A01A1E081
:100F4000CA1AD108E108F108BFEFCB16D104E104B9
:100F5000F104A9F0A0F089819A81AB81BC813AE0CB
:100F6000B595A795979587953A95D1F76C017D0131
:100F7000E1E0CE1AD108E108F10885E028CE84E04E
:100F800026CE83E024CE8DE00E948800AECDE1E441
:100F9000F1E01382128288EE93E0A0E0B0E0848357
:100FA0009583A683B7838DE291E09183808385EC5E
:100FB00090E09587848784EC90E09787868780EC23
:100FC00090E0918B808B81EC90E0938B828B82EC14
:100FD00090E0958B848B86EC90E0978B868B118EBE
:100FE000128E138E148E0895F8940C947A0881E072
:100FF00090E0F8940C947A0897FB072E16F400946E
:1010000007D077FD09D00E94600807FC05D03EF4A8
:10101000909581959F4F0895709561957F4F0895A4
:10102000A1E21A2EAA1BBB1BFD010DC0AA1FBB1FEC
:10103000EE1FFF1FA217B307E407F50720F0A21B5E
:10104000B30BE40BF50B661F771F881F991F1A94CB
:1010500069F760957095809590959B01AC01BD01F5
:10106000CF010895052E97FB1EF400940E944908B5
:1010700057FD07D00E94100807FC03D04EF40C94D3
:10108000490850954095309521953F4F4F4F5F4F00
:10109000089590958095709561957F4F8F4F9F4FE4
:1010A0000895A29FB001B39FC001A39F700D811D41
:1010B0001124911DB29F700D811D1124911D089561
:1010C000AA1BBB1B51E107C0AA1FBB1FA617B7076E
:1010D00010F0A61BB70B881F991F5A95A9F780958A
:1010E0009095BC01CD010895EE0FFF1F0590F4917E
:0810F000E02D0994F894FFCFF4
:1010F8000000EC020100E0020200D4020300C80272
:101108000400B8020500AC020600A402070094021D
:101118000800900209008802FF000000003001A7C3
:0C11280000D1007D010201E000F4000095
:00000001FF
