:100000000C945D000C9485000C9485000C94850084
:100010000C9485000C9485000C9485000C9485004C
:100020000C9485000C9485000C9485000C9485003C
:100030000C9485000C9485000C9485000C9485002C
:100040000C9497020C9485000C9465020C943F026A
:100050000C9485000C9485000C9485000C9485000C
:100060000C9485000C9485000000000024002700FB
:100070002A0000000000250028002B0004040404CE
:100080000404040402020202020203030303030342
:10009000010204081020408001020408102001021F
:1000A00004081020000000080002010000030407FB
:1000B0000000000000000000910311241FBECFEFDC
:1000C000D8E0DEBFCDBF11E0A0E0B1E0ECE9F7E0A1
:1000D00002C005900D92A032B107D9F721E0A0E24D
:1000E000B1E001C01D92A63CB207E1F710E0CDE5FA
:1000F000D0E004C02197FE010E94C603CC35D10791
:10010000C9F70E94E1020C94BE030C940000E1EBDD
:10011000F0E09491EDE9F0E02491E9E8F0E0E49179
:10012000EE2309F43CC0992339F1933091F038F46F
:100130009130A9F0923001F594B59F7D12C09730AF
:1001400091F09830A1F09430B9F4909180009F7DA7
:1001500003C0909180009F77909380000DC094B56C
:100160009F7794BD09C09091B0009F7703C0909194
:10017000B0009F7D9093B000F0E0EE0FFF1FEE58AF
:10018000FF4FA591B4919FB7F894811104C08C9151
:100190002095282302C0EC912E2B2C939FBF08950D
:1001A000CF92DF92EF92FF920F931F93CF93DF9343
:1001B0006C017A018B01C0E0D0E0CE15DF0581F043
:1001C000D8016D918D01D601ED91FC910190F081E6
:1001D000E02DC6010995892B11F02196EECF7E0105
:1001E000C701DF91CF911F910F91FF90EF90DF90AA
:1001F000CF900895FC01538D448D252F30E0842F3E
:1002000090E0821B930B541710F0CF96089501973E
:100210000895FC01918D828D981761F0828DDF0128
:10022000A80FB11D5D968C91928D9F5F9F73928FE9
:1002300090E008958FEF9FEF0895FC01918D828DDE
:10024000981731F0828DE80FF11D858D90E00895AB
:100250008FEF9FEF0895FC01918D228D892F90E003
:10026000805C9F4F821B91098F7399270895FC0131
:10027000848DDF01A80FB11DA35ABF4F2C91848D2F
:1002800090E001968F739927848FA689B7892C9364
:10029000A089B1898C91837080648C93938D848DB7
:1002A000981306C00288F389E02D80818F7D8083BA
:1002B0000895EF92FF920F931F93CF93DF93EC017A
:1002C00081E0888F9B8D8C8D981305C0E889F98912
:1002D000808185FD26C0F62E0B8D10E00F5F1F4F2D
:1002E0000F731127E02E8C8DE8120CC00FB607FC9F
:1002F000FACFE889F989808185FFF5CFCE010E9488
:100300003701F1CF8B8DFE01E80FF11DE35AFF4F4E
:10031000F0829FB7F8940B8FEA89FB898081806215
:100320000AC09FB7F894EE89FF896083E889F9894C
:1003300080818370806480839FBF81E090E0DF9143
:10034000CF911F910F91FF90EF900895CF93DF937E
:10035000EC01888D8823C9F0EA89FB89808185FDBD
:1003600005C0A889B9898C9186FD0FC00FB607FC1E
:10037000F5CF808185FFF2CFA889B9898C9185FF5F
:10038000EDCFCE010E943701E7CFDF91CF910895E5
:1003900089E291E00E942B0121E0892B09F420E001
:1003A000822F089580E090E0892B29F00E94C801F7
:1003B00081110C9400000895089580E090E0089564
:1003C0003FB7F8948091250190912601A0912701D3
:1003D000B091280126B5A89B05C02F3F19F00196C2
:1003E000A11DB11D3FBFBA2FA92F982F8827820FBB
:1003F000911DA11DB11DBC01CD0142E0660F771F0B
:10040000881F991F4A95D1F708958F929F92AF92B6
:10041000BF92CF92DF92EF92FF920E94E0014B01D8
:100420005C0188EEC82E83E0D82EE12CF12C0E94CE
:10043000E001DC01CB0188199909AA09BB09883EB2
:100440009340A105B10598F321E0C21AD108E10853
:10045000F10888EE880E83E0981EA11CB11CC1141F
:10046000D104E104F10419F7FF90EF90DF90CF90F1
:10047000BF90AF909F908F9008950E94C1031F92EC
:100480000F920FB60F9211242F933F934F935F93C8
:100490006F937F938F939F93AF93BF93EF93FF934C
:1004A00089E291E00E943701FF91EF91BF91AF91F6
:1004B0009F918F917F916F915F914F913F912F917C
:1004C0000F900FBE0F901F9018951F920F920FB6AE
:1004D0000F9211242F938F939F93EF93FF93E091AB
:1004E0003901F0913A018081E0913F01F0914001A2
:1004F00082FD12C09081809142018F5F8F732091A5
:100500004301821751F0E0914201F0E0E75DFE4FB8
:10051000958F8093420101C08081FF91EF919F915F
:100520008F912F910F900FBE0F901F9018951F92D3
:100530000F920FB60F9211242F933F938F939F9397
:10054000AF93BF938091210190912201A09123014B
:10055000B09124013091200123E0230F2D3720F4A6
:100560000196A11DB11D05C026E8230F0296A11D0D
:10057000B11D209320018093210190932201A0932B
:100580002301B09324018091250190912601A0912F
:100590002701B09128010196A11DB11D809325016D
:1005A00090932601A0932701B0932801BF91AF91AA
:1005B0009F918F913F912F910F900FBE0F901F90A1
:1005C0001895789484B5826084BD84B5816084BDBB
:1005D00085B5826085BD85B5816085BD80916E00E1
:1005E000816080936E001092810080918100826012
:1005F000809381008091810081608093810080914F
:1006000080008160809380008091B100846080933D
:10061000B1008091B00081608093B00080917A0039
:10062000846080937A0080917A00826080937A005F
:1006300080917A00816080937A0080917A0080684E
:1006400080937A001092C100EDE9F0E02491E9E88E
:10065000F0E08491882399F090E0880F991FFC01C5
:10066000E859FF4FA591B491FC01EE58FF4F8591D9
:1006700094918FB7F894EC91E22BEC938FBFE091BB
:100680003901F0913A0182E08083E0913501F091E7
:1006900036011082E0913701F09138018FEC8083B0
:1006A00010924101E0913D01F0913E0186E080838E
:1006B000E0913B01F0913C01808180618083E09179
:1006C0003B01F0913C01808188608083E0913B0197
:1006D000F0913C01808180688083E0913B01F09142
:1006E0003C0180818F7D808381E00E9487000E9491
:1006F000050280E00E9487000E9405024AE050E067
:1007000062E171E089E291E00E94D00042E050E0B5
:100710006DE171E089E291E00E94D0000E94D20177
:10072000E3CFE9E2F1E01382128288EE93E0A0E0E9
:10073000B0E084839583A683B78384E091E09183BE
:10074000808385EC90E09587848784EC90E09787A0
:10075000868780EC90E0918B808B81EC90E0938B8E
:10076000828B82EC90E0958B848B86EC90E0978B6B
:10077000868B118E128E138E148E0895F8940C941D
:10078000CC0381E090E0F8940C94CC03EE0FFF1FB3
:0C0790000590F491E02D0994F894FFCF3F
:10079C00000000005901D000FA00A6012B0109014C
:1007AC001D0148656C6C6F207A616B20000D0A008E
:00000001FF
