:100000000C945D000C9485000C9485000C94850084
:100010000C9485000C9485000C9485000C9485004C
:100020000C9485000C9485000C9485000C9485003C
:100030000C9485000C9485000C9485000C9485002C
:100040000C9492030C9485000C9458030C941D039B
:100050000C9485000C9485000C9485000C9485000C
:100060000C9485000C94850000000007000201003C
:100070000003040600000000000000000000000073
:10008000250028002B0000000000240027002A0083
:10009000040404040404040402020202020203032E
:1000A0000303030301020408102040800102040836
:1000B0001020010204081020DC0311241FBECFEF22
:1000C000D8E0DEBFCDBF11E0A0E0B1E0ECE9FAE09E
:1000D00002C005900D92A035B107D9F722E0A0E546
:1000E000B1E001C01D92A330B207E1F710E0CDE509
:1000F000D0E004C02197FE010E944605CC35D1070F
:10010000C9F70E9417040C9421050C94000090E09C
:10011000FC01EC55FF4F2491FC01E057FF4F849107
:10012000882399F090E0880F991FFC01EA57FF4F50
:10013000A591B491FC01E458FF4F859194918FB73C
:10014000F894EC91E22BEC938FBF089508950F93F0
:100150001F93CF93DF93FC01A685B7858D01005CCB
:100160001F4FE8018881998101968F739927AD010E
:100170004E5B5F4FEA012881398128173907D1F397
:10018000E80128813981A20FB31F6C93A685B7853A
:10019000A05CBF4F11969C938E93A689B7892C9132
:1001A00081E090E0078C02C0880F991F0A94E2F763
:1001B000822B8C9381E081A30488F589E02D8081D6
:1001C0008064808381E090E0DF91CF911F910F9157
:1001D0000895CF93DF936DE081EE91E00E94A70038
:1001E000EC016AE081EE91E00E94A7008C0F9D1F58
:1001F000DF91CF910895FC0181A1882329F0A48982
:10020000B5898C9186FFFBCF11A20895FC01A485CE
:10021000B585FD01E05CFF4F208131813296808100
:1002200091812817390779F080819181A80FB91F32
:100230008C91208131812F5F3F4F2F733327318382
:10024000208390E008958FEF9FEF0895DC011C96C6
:10025000ED91FC911D97DF01A05CBF4F2D913C916A
:10026000119712968D919C9111972817390739F0A3
:100270008D919C91E80FF91F808190E008958FEF98
:100280009FEF0895FC0124853585F901E05CFF4F5F
:1002900080819181329620813181821B930B8F73F3
:1002A0009927089581EE91E00C944201CF92DF925C
:1002B000EF92FF920F931F93CF93DF936C01EB01AB
:1002C0007B01E40EF51E00E010E0CE15DF0561F0C5
:1002D0006991D601ED91FC910190F081E02DC6016C
:1002E0000995080F191FF1CFC801DF91CF911F9118
:1002F0000F91FF90EF90DF90CF90089590E0FC0178
:10030000E859FF4F2491FC01EC55FF4F3491FC015B
:10031000E057FF4FE491EE2309F43CC0222339F16A
:10032000233091F038F42130A9F0223001F584B562
:100330008F7D12C0263091F02730A1F02430B9F41F
:10034000809180008F7D03C0809180008F778093A3
:1003500080000DC084B58F7784BD09C08091B00046
:100360008F7703C08091B0008F7D8093B000F0E064
:10037000EE0FFF1FE458FF4FA591B4919FB7F8947B
:10038000611104C08C913095382302C0EC913E2B52
:100390003C939FBF08953FB7F89480915501909189
:1003A0005601A0915701B091580126B5A89B05C0F0
:1003B0002F3F19F00196A11DB11D3FBFBA2FA92FE4
:1003C000982F8827820F911DA11DB11DBC01CD0161
:1003D00042E0660F771F881F991F4A95D1F708954D
:1003E000CF92DF92EF92FF92CF93DF936B017C016C
:1003F0000E94CB01EB01C114D104E104F10479F0B6
:100400000E94CB016C1B7D0B683E7340A0F381E022
:10041000C81AD108E108F108C851DC4FECCFDF91D0
:10042000CF91FF90EF90DF90CF900895009769F003
:10043000FC0101900020E9F73197AF01481B590BEF
:10044000BC0181EE91E00C94560180E090E00895AB
:100450004F925F926F927F92AF92BF92CF92DF9254
:10046000EF92FF920F931F93CF93DF93CDB7DEB739
:10047000A1970FB6F894DEBF0FBECDBF6C01990FE8
:10048000EE08FF08F7FE39C06DE281EE91E00E94B0
:10049000A7008C01F094E094D094C094C11CD11CAE
:1004A000E11CF11C19A29E012F5D3F4F59013AE05A
:1004B000432E512C612C712CC701B601A30192016E
:1004C0000E9424058C2D9AE0299F80191124E1E0D7
:1004D000AE1AB1088A3014F4805D01C0895CF50160
:1004E000808369017A01232B242B252B29F7C50151
:1004F0000E941602080F191F2BC01C2D7D2DC7014D
:1005000019A29E012F5D3F4F79012AE0422E512C06
:10051000612C712C612FA30192010E9424058AE0B5
:10052000289F1019112491E0E91AF1081A3014F4E7
:10053000105D01C0195CF7011083122F732FCA01DF
:10054000232B242B252B31F7C7010E9416028C0187
:100550000E94E900800F911FA1960FB6F894DEBFAC
:100560000FBECDBFDF91CF911F910F91FF90EF9004
:10057000DF90CF90BF90AF907F906F905F904F9043
:100580000895BF92CF92DF92EF92FF920F931F9345
:10059000CF93DF937C018B0181E0E816F10431F009
:1005A000D5E024E0D22E32E0C32E05C0DBE088E0A7
:1005B000D82E9CE0C92E0130110541F0C1E00F3F5B
:1005C0008FEF180709F0C0E0B12C03C0C0E0BB24D6
:1005D000B3948D2F0E94870061E08D2F0E947E01D1
:1005E0006B2D8C2D0E947E016C2F8D2D0E947E0123
:1005F00080E191E00E941602C7010E94280289E171
:1006000091E00E941602C8010E94280286E291E051
:100610000E9416028FEF90E00E9428028CE291E087
:100620000E941602DF91CF911F910F91FF90EF90E2
:10063000DF90CF90BF900C94E9001F920F920FB6FD
:100640000F9211242F933F938F939F93EF93FF93D8
:100650002091990130919A0180919B0190919C0188
:100660002817390731F48091C1008F7D8093C10034
:1006700014C0E0919B01F0919C01E75AFE4F20814C
:1006800080919B0190919C0101968F739927909383
:100690009C0180939B012093C600FF91EF919F9155
:1006A0008F913F912F910F900FBE0F901F90189533
:1006B0001F920F920FB60F9211242F934F935F93B7
:1006C0008F939F93EF93FF938091C00082FD1CC096
:1006D0002091C6008091DD019091DE014091DF0103
:1006E0005091E00101968F7399274817590771F0CF
:1006F000E091DD01F091DE01E356FE4F20839093FF
:10070000DE018093DD0102C08091C600FF91EF9170
:100710009F918F915F914F912F910F900FBE0F90EE
:100720001F9018951F920F920FB60F9211242F93BE
:100730003F938F939F93AF93BF938091510190917B
:100740005201A0915301B09154013091500123E026
:10075000230F2D3720F40196A11DB11D05C026E8F9
:10076000230F0296A11DB11D2093500180935101CA
:1007700090935201A0935301B0935401809155017D
:1007800090915601A0915701B09158010196A11D79
:10079000B11D8093550190935601A0935701B093DA
:1007A0005801BF91AF919F918F913F912F910F90E1
:1007B0000FBE0F901F901895E1EEF1E013821282A8
:1007C00088EE93E0A0E0B0E084839583A683B783AE
:1007D00084E091E0918380838DE991E0958784871F
:1007E00089E591E09787868785EC90E0918B808BF7
:1007F00084EC90E0938B828B80EC90E0958B848BE3
:1008000081EC90E0978B868B82EC90E0918F808FCB
:1008100086EC90E0938F828F84E0848F83E0858FD5
:1008200087E0868F85E0878F81E080A308957894A4
:1008300084B5826084BD84B5816084BD85B58260E5
:1008400085BD85B5816085BD80916E008160809396
:100850006E001092810080918100826080938100FF
:10086000809181008160809381008091800081600F
:10087000809380008091B10084608093B10080916A
:10088000B00081608093B00080917A008460809392
:100890007A0080917A00826080937A0080917A0059
:1008A000816080937A0080917A00806880937A00DA
:1008B0001092C1008CE00E94870088E00E948700AF
:1008C0008BE00E94870082E00E94870084E00E9403
:1008D000870085E00E948700E091F501F091F60124
:1008E00081E090E09C010090010202C0220F331FC2
:1008F0000A94E2F72083E091F101F091F201108275
:10090000E091F301F091F4012FEC208310920202A8
:10091000E091F701F091F80140819C010090FD0108
:1009200002C0220F331F0A94E2F7242B2083E091A8
:10093000F701F091F80140819C010090FE0102C096
:10094000220F331F0A94E2F7242B2083E091F70152
:10095000F091F80140819C010090FF0102C0220F3C
:10096000331F0A94E2F7242B2083E091F701F091E2
:10097000F80120810090000202C0880F991F0A949C
:10098000E2F780958223808361E070E081E090E06F
:100990000E94C10261E070E082E090E00E94C1022A
:1009A00060E777E180E090E00E94F00161E070E0B4
:1009B00081E090E00E94C1026FEF7FEF82E090E063
:1009C0000E94C10260ED77E080E090E00E94F001BB
:1009D0006FEF7FEF81E090E00E94C10261E070E084
:1009E00082E090E00E94C10260ED77E080E090E05C
:1009F0000E94F0016FEF7FEF81E090E00E94C10262
:100A00006FEF7FEF82E090E00E94C10268E873E13F
:100A100080E090E00E94F00160E070E081E090E012
:100A20000E94C10260E070E082E090E00E94C1029A
:100A300068E873E180E090E00E94F0010E945201BA
:100A4000A3CFF8940C944C05A1E21A2EAA1BBB1B51
:100A5000FD010DC0AA1FBB1FEE1FFF1FA217B3078A
:100A6000E407F50720F0A21BB30BE40BF50B661FA0
:100A7000771F881F991F1A9469F760957095809564
:100A800090959B01AC01BD01CF010895EE0FFF1FB2
:0C0A90000590F491E02D0994F894FFCF3C
:100A9C0000000000A7005601420106012601FB00E0
:100AAC004D6F746F72203A200064697265637469CB
:100ABC006F6E203A20005370656564002D2D2D2D2E
:100ACC002D2D2D2D2D2D2D2D2D2D2D2D2D2D2D2D4A
:100ADC002D2D2D2D2D2D2D2D2D2D2D2D2D2D000094
:00000001FF
