:100000000C9462000C948A000C948A000C948A0070
:100010000C948A000C948A000C948A000C948A0038
:100020000C948A000C948A000C948A000C94590554
:100030000C948A000C948A000C948A000C948A0018
:100040000C9472060C948A000C9440060C941A06C8
:100050000C948A000C948A000C948A000C948A00F8
:100060000C948A000C948A000000000023002600F3
:10007000290000000000240027002A0000000000E2
:10008000250028002B0004040404040404040202D4
:100090000202020203030303030301020408102007
:1000A0004080010204081020010204081020000012
:1000B0000008000201000003040700000000000027
:1000C0000000010711241FBECFEFD8E0DEBFCDBF77
:1000D00011E0A0E0B1E0E6E6F8E102C005900D9283
:1000E000A039B107D9F722E0A0E9B1E001C01D9223
:1000F000A736B207E1F710E0C2E6D0E004C02197CE
:10010000FE010E942B0CC136D107C9F70E945F0780
:100110000C946A090C940000CF92DF92EF92FF9248
:10012000DC01A03282E0B8070CF03EC0B7FD06C08B
:10013000A53BB1052CF0A4EBB0E002C0A0E0B0E01C
:100140008091650228E830E06901C81AD10887FD6E
:10015000D394CC0CDD1CCC0CDD1C0D2C000CEE085B
:10016000FF088091660228E532E0281B310987FDEF
:100170003395220F331F220F331FA901330F660B54
:10018000770B9A01AB012C193D094E095F090E94BA
:10019000970924EB30E040E050E00E946D09C20E68
:1001A000D31EE41EF51ED601909164029C3098F592
:1001B0008091650248E850E0481B510987FD53953E
:1001C000440F551F440F551FA417B5078CF080919D
:1001D000660228E532E0281B310987FD3395220F9E
:1001E000331F220F331FAD012A173B070CF4A9015F
:1001F00042505109440F551F2FB7F894892F90E0B2
:10020000FC01EE0FFF1F8E0F9F1FFC01E15CFD4FF5
:10021000528341832FBFFF90EF90DF90CF900895DE
:10022000CF92DF92EF92FF920F931F93CF93DF93C2
:100230006C017A018B01C0E0D0E0CE15DF0581F0C2
:10024000D8016D918D01D601ED91FC910190F08165
:10025000E02DC6010995892B11F02196EECF7E0184
:10026000C701DF91CF911F910F91FF90EF90DF9029
:10027000CF900895FC01538D448D252F30E0842FBD
:1002800090E0821B930B541710F0CF9608950197BE
:100290000895FC01918D828D981761F0828DDF01A8
:1002A000A80FB11D5D968C91928D9F5F9F73928F69
:1002B00090E008958FEF9FEF0895FC01918D828D5E
:1002C000981731F0828DE80FF11D858D90E008952B
:1002D0008FEF9FEF0895FC01918D228D892F90E083
:1002E000805C9F4F821B91098F7399270895FC01B1
:1002F000848DDF01A80FB11DA35ABF4F2C91848DAF
:1003000090E001968F739927848FA689B7892C93E3
:10031000A089B1898C91837080648C93938D848D36
:10032000981306C00288F389E02D80818F7D808339
:100330000895EF92FF920F931F93CF93DF93EC01F9
:1003400081E0888F9B8D8C8D981305C0E889F98991
:10035000808185FD26C0F62E0B8D10E00F5F1F4FAC
:100360000F731127E02E8C8DE8120CC00FB607FC1E
:10037000FACFE889F989808185FFF5CFCE010E9407
:100380007701F1CF8B8DFE01E80FF11DE35AFF4F8E
:10039000F0829FB7F8940B8FEA89FB898081806295
:1003A0000AC09FB7F894EE89FF896083E889F989CC
:1003B00080818370806480839FBF81E090E0DF91C3
:1003C000CF911F910F91FF90EF900895CF93DF93FE
:1003D000EC01888D8823C9F0EA89FB89808185FD3D
:1003E00005C0A889B9898C9186FD0FC00FB607FC9E
:1003F000F5CF808185FFF2CFA889B9898C9185FFDF
:10040000EDCFCE010E947701E7CFDF91CF91089524
:1004100082EA91E00E946B0121E0892B09F420E03F
:10042000822F089580E090E0892B29F00E94080235
:1004300081110C9400000895089580E090E00895E3
:1004400090E0FC01E255FF4F2491FC01E656FF4F7E
:100450003491FC01EA57FF4FE491EE2309F43CC0CC
:10046000222339F1233091F038F42130A9F02230E1
:1004700001F584B58F7D12C0273091F02830A1F0AE
:100480002430B9F4809180008F7D03C0809180007A
:100490008F77809380000DC084B58F7784BD09C0AD
:1004A0008091B0008F7703C08091B0008F7D8093E2
:1004B000B000F0E0EE0FFF1FE458FF4FA591B4919C
:1004C0009FB7F894611104C08C913095382302C015
:1004D000EC913E2B3C939FBF0895CF93DF9390E028
:1004E000FC01E656FF4F2491FC01EA57FF4F84912F
:1004F000882361F190E0880F991FFC01EE58FF4FAF
:10050000C591D491FC01E458FF4FA591B4916111BC
:1005100009C09FB7F8948881209582238883EC9145
:100520002E230BC0623061F49FB7F8948881322F7C
:10053000309583238883EC912E2B2C939FBF06C08C
:100540008FB7F894E8812E2B28838FBFDF91CF914E
:1005500008953FB7F8948091950190919601A091EC
:100560009701B091980126B5A89B05C02F3F19F0BF
:100570000196A11DB11D3FBFBA2FA92F982F882723
:10058000820F911DA11DB11DBC01CD0142E0660F7E
:10059000771F881F991F4A95D1F708958F929F92D0
:1005A000AF92BF92CF92DF92EF92FF926B017C01EC
:1005B0000E94A9024B015C01C114D104E104F104C1
:1005C000F1F00E94A902DC01CB0188199909AA095E
:1005D000BB09883E9340A105B10570F321E0C21A22
:1005E000D108E108F10888EE880E83E0981EA11C6E
:1005F000B11CC114D104E104F10419F7DDCFFF905F
:10060000EF90DF90CF90BF90AF909F908F90089524
:100610001F93CF93DF93182FEB0161E00E946D02CF
:10062000209711F460E004C0CF3FD10539F461E0B8
:10063000812FDF91CF911F910C942002E12FF0E0E8
:10064000E255FF4FE491E330F9F048F4E130B9F0BE
:10065000E230A1F584B5806284BDC8BD34C0E73006
:10066000E9F0E83019F1E43049F5809180008062CA
:1006700080938000D0938B00C0938A0024C084B5FF
:10068000806884BDC7BD1FC0809180008068809352
:100690008000D0938900C093880015C08091B0007D
:1006A00080688093B000C093B3000DC08091B0000B
:1006B00080628093B000C093B40005C0C038D105FB
:1006C0000CF0B5CFAFCFDF91CF911F910895FF927E
:1006D0000F931F93CF93DF93019729F095E0F92EA5
:1006E000D4E012E004C08BE0F82ED8E01CE06130CA
:1006F000710539F0C1E06F3F7F4F09F0C0E000E0C5
:1007000002C0C0E001E02FEF30E0DA010E94240CCB
:1007100024E630E040E050E00E946D09B9018F2DE1
:100720000E940803602F812F0E9420026C2F8D2FC2
:10073000DF91CF911F910F91FF900C9420020097B1
:1007400069F0FC0101900020E9F73197AF01481BE7
:10075000590BBC0182EA91E00C94100180E090E01A
:1007600008958F929F92AF92BF920F931F93CF9352
:10077000DF93CDB7DEB7A1970FB6F894DEBF0FBEFB
:10078000CDBF19A2423008F44AE08E010F5D1F4F21
:10079000842E912CA12CB12CA50194010E949F09BB
:1007A000E62FB901CA0101501109EA3014F4E05DE5
:1007B00001C0E95CD801EC93232B242B252B61F796
:1007C000C8010E949F03A1960FB6F894DEBF0FBE2A
:1007D000CDBFDF91CF911F910F91BF90AF909F90B0
:1007E0008F90089540E050E060E070E081E090E09C
:1007F0000E94670340E050E060E070E082E090E03B
:100800000E94670382E191E00E949F038EE291E0E3
:100810000C949F03CF92DF92EF92FF92CF93DF93DE
:100820006C01990FEE08FF08F7FE13C06DE282EA33
:1008300091E00E949901EC0166277727CB016C19A2
:100840007D098E099F094AE00E94B103C80FD91F94
:1008500006C04AE0C701B6010E94B103EC018EE276
:1008600091E00E949F038C0F9D1FDF91CF91FF901D
:10087000EF90DF90CF9008958F929F92AF92BF92AA
:10088000CF92DF92EF92FF920F931F93CF93DF935C
:100890006B017C01142F9B01AC010E94130C882377
:1008A00019F081E391E027C046015701E894B7F8B9
:1008B0002FEF3FEF4FE75FE7C501B4010E94130C34
:1008C00081110DC02FEF3FEF4FE75FE7C501B40186
:1008D0000E94420A18161CF485E391E00CC02FEF29
:1008E0003FEF4FE75FE4C701B6010E94A10B181666
:1008F00084F489E391E0DF91CF911F910F91FF90F4
:10090000EF90DF90CF90BF90AF909F908F900C941E
:100910009F032FEF3FEF4FE75FECC701B6010E9447
:10092000420A87FDE6CF20E030E0A901C701B60109
:100930000E94420A87FF0BC06DE282EA91E00E94AA
:100940009901EC01F7FAF094F7F8F09402C0C0E0D6
:10095000D0E000E060E070E080E09FE3101741F03D
:1009600020E030E040E251E40E94470A0F5FF6CFFA
:10097000A70196010E94D6096B017C010E94C00A62
:100980004B015C014AE00E94B103C80FD91F11233B
:10099000B9F1C501B4010E94EF0A9B01AC01C70186
:1009A000B6010E94D5096B017C016EE282EA91E0FA
:1009B0000E949901C80FD91F20E030E040E251E4C5
:1009C000C701B6010E94A60B4B015C010E94C00A40
:1009D0006B01E12CF12C4AE0C701B6010E94B10382
:1009E000C80FD91FC701B6010E94EF0A9B01AC01D5
:1009F000C501B4010E94D5096B017C011150E1F6DB
:100A0000CE01DF91CF911F910F91FF90EF90DF907A
:100A1000CF90BF90AF909F908F9008950E94D00983
:100A20000F931F9360E087E00E94200283E090E034
:100A30000197F1F761E087E00E94200283E290E0F5
:100A40000197F1F760E087E00E942002E0EAF0E021
:100A50006491ECE8F0E0E491F0E0EE0FFF1FE8595C
:100A6000FF4F8591949100E412E42FE030E0462F8F
:100A70000E94BC06611571058105910549F0DC01F4
:100A8000CB010196A11DB11DBC01CD019F7003C01A
:100A900060E070E0CB010E94EF0A20E030E048E621
:100AA00052E40E94470A0E94B90ACB011F910F919C
:100AB00008951F920F920FB60F9211242F933F9318
:100AC0004F935F936F937F938F939F93AF93BF9356
:100AD000EF93FF938091A10187FF05C010928500DD
:100AE000109284001BC02091A101022E000C330B38
:100AF0008091630290E02817390784F48091A10166
:100B0000082E000C990BFC01EE0FFF1F8E0F9F1F8C
:100B1000FC01E15CFD4F808186FD15C08091A10143
:100B20008F5F8093A1012091A101022E000C330B55
:100B30008091630290E028173907C4F48091A101E5
:100B40008C3064F113C08091A101082E000C990B28
:100B5000FC01EE0FFF1F8E0F9F1FFC01E15CFD4F9C
:100B6000808160E08F730E942002D8CF8091840042
:100B700090918500049680349C4918F480E49CE9A7
:100B800005C080918400909185000496909389001F
:100B9000809388008FEF8093A1013BC02091840057
:100BA000309185008091A101082E000C990BFC0169
:100BB000EE0FFF1F8E0F9F1FFC01E15CFD4F818137
:100BC0009281820F931F9093890080938800809177
:100BD000A101082E000C990BFC01EE0FFF1F8E0FD8
:100BE0009F1FFC01E15CFD4F808186FF12C0809158
:100BF000A101082E000C990BFC01EE0FFF1F8E0FB8
:100C00009F1FFC01E15CFD4F808161E08F730E94BA
:100C10002002FF91EF91BF91AF919F918F917F91B2
:100C20006F915F914F913F912F910F900FBE0F9059
:100C30001F9018951F920F920FB60F9211242F93A9
:100C40003F934F935F936F937F938F939F93AF9354
:100C5000BF93EF93FF9382EA91E00E947701FF91A7
:100C6000EF91BF91AF919F918F917F916F915F9124
:100C70004F913F912F910F900FBE0F901F9018959D
:100C80001F920F920FB60F9211242F938F939F9361
:100C9000EF93FF93E091B201F091B3018081E09175
:100CA000B801F091B90182FD12C090818091BB0121
:100CB0008F5F8F732091BC01821751F0E091BB01CF
:100CC000F0E0EE55FE4F958F8093BB0101C080810F
:100CD000FF91EF919F918F912F910F900FBE0F90E9
:100CE0001F9018951F920F920FB60F9211242F93F9
:100CF0003F938F939F93AF93BF9380919101909176
:100D00009201A0919301B09194013091900123E060
:100D1000230F2D3720F40196A11DB11D05C026E833
:100D2000230F0296A11DB11D209390018093910184
:100D300090939201A0939301B093940180919501B7
:100D400090919601A0919701B09198010196A11DF3
:100D5000B11D8093950190939601A0939701B09354
:100D60009801BF91AF919F918F913F912F910F90DB
:100D70000FBE0F901F901895CF92DF92EF92FF92C7
:100D80000F931F93E82FF92F05C001501109210976
:100D9000310961F1908196239417B9F305C0015090
:100DA00011092109310911F1908196239413F7CF8C
:100DB000C12CD12CE12CF12C0AC08FEFC81AD80A13
:100DC000E80AF80A0C151D052E053F0579F080810B
:100DD0008623841791F36C2D7D2D8E2D9F2D1F91D1
:100DE0000F91FF90EF90DF90CF90089560E070E05A
:100DF00080E090E01F910F91FF90EF90DF90CF90F7
:100E000008951092A5011092A40188EE93E0A0E04D
:100E1000B0E08093A6019093A701A093A801B0939E
:100E2000A90184E091E09093A3018093A20185EC55
:100E300090E09093AF018093AE0184EC90E09093AA
:100E4000B1018093B00180EC90E09093B301809366
:100E5000B20181EC90E09093B5018093B40182ECF3
:100E600090E09093B7018093B60186EC90E0909368
:100E7000B9018093B8011092BB011092BC0110928D
:100E8000BD011092BE01809163028C30A0F491E00C
:100E9000980F909363028093640290E0FC01EE0F40
:100EA000FF1F8E0F9F1FFC01E15CFD4F88EB9BE055
:100EB0009283818308958FEF8093640208957894DC
:100EC00084B5826084BD84B5816084BD85B582604F
:100ED00085BD85B5816085BD80916E008160809300
:100EE0006E00109281008091810082608093810069
:100EF0008091810081608093810080918000816079
:100F0000809380008091B10084608093B1008091D3
:100F1000B00081608093B00080917A0084608093FB
:100F20007A0080917A00826080937A0080917A00C2
:100F3000816080937A0080917A00806880937A0043
:100F40001092C10061E08CE00E946D0261E088E0D7
:100F50000E946D0261E08BE00E946D0261E082E020
:100F60000E946D0261E084E00E946D0261E085E014
:100F70000E946D02E091B201F091B30182E08083A2
:100F8000E091AE01F091AF011082E091B001F091DB
:100F9000B1018FEC80831092BA01E091B601F0911B
:100FA000B70186E08083E091B401F091B5018081C2
:100FB00080618083E091B401F091B5018081886007
:100FC0008083E091B401F091B501808180688083D5
:100FD000E091B401F091B50180818F7D808361E063
:100FE00087E00E946D0261E089E00E946D0260E08E
:100FF00086E00E946D0261E089E00E9420028091FB
:1010000064028C3008F051C061E083E00E946D0200
:1010100080916402E82FF0E09F01220F331FE20F5E
:10102000F31FE15CFD4F9081907C93609083109260
:101030006502109266026CE00E94180C9CE0899F89
:10104000B001112440E050E09B01240F351FF9014D
:10105000EE0FFF1F2E0F3F1FF901E15CFD4F908146
:1010600096FD16C04F5F5F4F4C30510569F78111F7
:101070000FC01092800082E0809381001092850062
:1010800010928400B19A80916F00826080936F000B
:10109000E0916402F0E0CF01880F991FE80FF91F7B
:1010A000E15CFD4F80818064808380E090E00E945D
:1010B0008C006FEF70E08BE00E9408036FEF70E030
:1010C00085E00E94080361E08CE00E94200261E05C
:1010D00082E00E94200260E088E00E94200260E03E
:1010E00084E00E9420028DE391E00E949F038FEF35
:1010F00090E00E940A040E941005BC01990F880B21
:10110000990B0E94F10A60939D0170939E01809358
:101110009F019093A0018FE491E00E949F03609152
:101120009D0170919E0180919F019091A00142E0EC
:101130000E943C048EE291E00E949F0320E030E098
:1011400040EF51E460919D0170919E0180919F015B
:101150009091A0010E94420A87FFB3C08FE491E002
:101160000E949F0360919D0170919E0180919F015B
:101170009091A00142E00E943C048EE291E00E9426
:101180009F036FEF70E08BE00E9408036FEF70E049
:1011900085E00E94080360E08CE00E94200260E08D
:1011A00082E00E94200261E088E00E94200261E06B
:1011B00084E00E9420028DE391E00E949F038FEF64
:1011C00090E00E940A0468EC70E080E090E00E94E9
:1011D000CE0284EB90E00E948C000E941005909358
:1011E0009C0180939B0164E670E080E090E00E94A7
:1011F000CE0280E090E00E948C000E941005EC017D
:1012000090939A018093990164E670E080E090E009
:101210000E94CE0260919B0170919C01C617D70776
:101220000CF5072E000C880B990B0E94F10A6093B5
:101230009D0170939E0180939F019093A00140E5D2
:1012400050E06FEF7FEF81E090E00E94670340E5A0
:1012500050E061E070E082E090E00E9467038FE57B
:1012600091E020C0BE01DD0F880B990B0E94F10AAE
:1012700060939D0170939E0180939F019093A001C4
:1012800040E550E061E070E081E090E00E9467039B
:1012900040E550E06FEF7FEF82E090E00E9467034F
:1012A00088E791E00E949F0380E590E00E940A0495
:1012B00062E370E080E090E00E94CE020E94F203C0
:1012C0003DCF6CE271E080E090E00E94CE020E948F
:1012D0001202EFCEF8940C94310C052E97FB1EF4FD
:1012E00000940E94840957FD07D00E949F0907FCC3
:1012F00003D04EF40C948409509540953095219577
:101300003F4F4F4F5F4F0895909580957095619531
:101310007F4F8F4F9F4F08950E94C109A59F900D49
:10132000B49F900DA49F800D911D11240895B7FFC7
:101330000C948C090E948C09821B930B0895A1E2E6
:101340001A2EAA1BBB1BFD010DC0AA1FBB1FEE1F3F
:10135000FF1FA217B307E407F50720F0A21BB30B8A
:10136000E40BF50B661F771F881F991F1A9469F706
:1013700060957095809590959B01AC01BD01CF0162
:101380000895A29FB001B39FC001A39F700D811D5E
:101390001124911DB29F700D811D1124911D08957E
:1013A00081E090E0F8940C94310C5058BB27AA27A8
:1013B0000E94ED090C94670B0E94590B38F00E94B3
:1013C000600B20F039F49F3F19F426F40C94560B6F
:1013D0000EF4E095E7FB0C94500BE92F0E94780B7C
:1013E00058F3BA17620773078407950720F079F45A
:1013F000A6F50C949A0B0EF4E0950B2EBA2FA02DA7
:101400000B01B90190010C01CA01A0011124FF27B1
:10141000591B99F0593F50F4503E68F11A16F040AC
:10142000A22F232F342F4427585FF3CF46953795AB
:101430002795A795F0405395C9F77EF41F16BA0B70
:10144000620B730B840BBAF09150A1F0FF0FBB1F1E
:10145000661F771F881FC2F70EC0BA0F621F731F67
:10146000841F48F4879577956795B795F7959E3FC4
:1014700008F0B0CF9395880F08F09927EE0F979555
:10148000879508950E942C0B08F481E008950E942E
:101490005B0A0C94670B0E94600B58F00E94590B7A
:1014A00040F029F45F3F29F00C94500B51110C943B
:1014B0009B0B0C94560B0E94780B68F39923B1F3A5
:1014C000552391F3951B550BBB27AA27621773076A
:1014D000840738F09F5F5F4F220F331F441FAA1FFE
:1014E000A9F335D00E2E3AF0E0E832D091505040BA
:1014F000E695001CCAF72BD0FE2F29D0660F771F68
:10150000881FBB1F261737074807AB07B0E809F04D
:10151000BB0B802DBF01FF2793585F4F3AF09E3FD2
:10152000510578F00C94500B0C949B0B5F3FE4F347
:10153000983ED4F3869577956795B795F7959F5F15
:10154000C9F7880F911D9695879597F90895E1E061
:10155000660F771F881FBB1F621773078407BA07C0
:1015600020F0621B730B840BBA0BEE1F88F7E0951B
:1015700008950E94C00A6894B1110C949B0B0895C1
:101580000E94800B88F09F5798F0B92F9927B75188
:10159000B0F0E1F0660F771F881F991F1AF0BA9517
:1015A000C9F714C0B13091F00E949A0BB1E00895D0
:1015B0000C949A0B672F782F8827B85F39F0B93FC2
:1015C000CCF3869577956795B395D9F73EF49095CA
:1015D0008095709561957F4F8F4F9F4F0895E89448
:1015E00009C097FB3EF490958095709561957F4F6B
:1015F0008F4F9F4F9923A9F0F92F96E9BB27939519
:10160000F695879577956795B795F111F8CFFAF428
:10161000BB0F11F460FF1BC06F5F7F4F8F4F9F4F59
:1016200016C0882311F096E911C0772321F09EE8B7
:10163000872F762F05C0662371F096E8862F70E01D
:1016400060E02AF09A95660F771F881FDAF7880FF7
:101650009695879597F90895990F0008550FAA0B4D
:10166000E0E8FEEF16161706E807F907C0F01216B5
:101670001306E407F50798F0621B730B840B950BB8
:1016800039F40A2661F0232B242B252B21F408950D
:101690000A2609F4A140A6958FEF811D811D0895AA
:1016A00097F99F6780E870E060E008959FEF80EC15
:1016B000089500240A9416161706180609060895B8
:1016C00000240A9412161306140605060895092E1E
:1016D0000394000C11F4882352F0BB0F40F4BF2B8D
:1016E00011F460FF04C06F5F7F4F8F4F9F4F0895CD
:1016F00057FD9058440F551F59F05F3F71F04795C3
:10170000880F97FB991F61F09F3F79F087950895A7
:10171000121613061406551FF2CF4695F1DF08C0C6
:10172000161617061806991FF1CF869571056105E3
:1017300008940895E894BB2766277727CB0197F98B
:1017400008950E942C0B08F48FEF08950E94B90BA6
:101750000C94670B0E94590B38F00E94600B20F02C
:10176000952311F00C94500B0C94560B11240C94EF
:101770009B0B0E94780B70F3959FC1F3950F50E07F
:10178000551F629FF001729FBB27F00DB11D639F33
:10179000AA27F00DB11DAA1F649F6627B00DA11DD9
:1017A000661F829F2227B00DA11D621F739FB00D7F
:1017B000A11D621F839FA00D611D221F749F3327EF
:1017C000A00D611D231F849F600D211D822F762F88
:1017D0006A2F11249F5750409AF0F1F088234AF065
:1017E000EE0FFF1FBB1F661F771F881F91505040D1
:1017F000A9F79E3F510580F00C94500B0C949B0B65
:101800005F3FE4F3983ED4F3869577956795B79557
:10181000F795E7959F5FC1F7FE2B880F911D969571
:10182000879597F908950E942C0B880B990B0895C2
:10183000991B79E004C0991F961708F0961B881F22
:101840007A95C9F7809508950E94C109B7FF089558
:10185000821B930B0895EE0FFF1F0590F491E02D6E
:061860000994F894FFCF8B
:1018660000000000990110013A01E6016B014901EF
:101876005D0153746F702053746F702053746F70D2
:10188600207C207370656564203D203020000D0AA1
:10189600006E616E00696E66006F76660052756E48
:1018A600205550207C207370656564203D200057CC
:1018B600616C2044697374616E6365203A2000523E
:1018C600756E2072696768743D3D3D3E207C2073CD
:1018D60070656564203D20003C3D3D3D52756E209F
:1018E6004C454654207C207370656564203D20007D
:00000001FF
