:100000000C945D000C9485000C9485000C94850084
:100010000C9485000C9485000C9485000C9485004C
:100020000C9485000C9485000C9485000C9485003C
:100030000C9485000C9485000C9485000C9485002C
:100040000C9498020C9485000C9485000C94850007
:100050000C9485000C9485000C9485000C9485000C
:100060000C9485000C94850000000007000201003C
:100070000003040600000000000000000000000073
:10008000250028002B0000000000240027002A0083
:10009000040404040404040402020202020203032E
:1000A0000303030301020408102040800102040836
:1000B0001020010204081020650311241FBECFEF99
:1000C000D8E0DEBFCDBF11E0A0E0B1E0E2E5F7E0AF
:1000D00002C005900D92A633B107D9F721E0A6E33F
:1000E000B1E001C01D92A435B207E1F710E0CDE503
:1000F000D0E004C02197FE010E94A103CC35D107B6
:10010000C9F70E94E2020C949E030C94000090E058
:10011000FC01EC55FF4F2491FC01E057FF4F849107
:10012000882399F090E0880F991FFC01EA57FF4F50
:10013000A591B491FC01E458FF4F859194918FB73C
:10014000F894EC91E22BEC938FBF0895089590E022
:10015000FC01E859FF4F2491FC01EC55FF4F34910D
:10016000FC01E057FF4FE491EE2309F43CC0222349
:1001700039F1233091F038F42130A9F0223001F523
:1001800084B58F7D12C0263091F02730A1F0243045
:10019000B9F4809180008F7D03C0809180008F77BB
:1001A000809380000DC084B58F7784BD09C0809195
:1001B000B0008F7703C08091B0008F7D8093B00036
:1001C000F0E0EE0FFF1FE458FF4FA591B4919FB7E9
:1001D000F894611104C08C913095382302C0EC91E1
:1001E0003E2B3C939FBF0895CF93DF93EC0160E0DB
:1001F0008E810E94A70061E08E810E94A70060E0CE
:100200008E810E94A7008AE891E00197F1F7DF91C3
:10021000CF910895AF92BF92CF92DF92EF92FF926B
:100220000F931F93CF93DF935C017C0187E0E80E6F
:10023000F11CC0E0D0E0062F10E06701F7018191CA
:100240007F010E948700B8010C2E02C0759567954A
:100250000A94E2F76170F60180810E94A70021965E
:10026000C430D10551F7C501DF91CF911F910F9196
:10027000FF90EF90DF90CF90BF90AF900C94F40080
:10028000AF92BF92CF92DF92EF92FF920F931F93A4
:10029000CF93DF93EC01F62E642F8C810E94A70090
:1002A0008D818F3F19F060E00E94A7008F850F2D90
:1002B00010E084FF2CC05E0187E0A80EB11CE12C89
:1002C000F12C6501F50181915F010E948700B80161
:1002D0000E2C02C0759567950A94E2F76170F601DD
:1002E00080810E94A700FFEFEF1AFF0A88E0E8165E
:1002F000F10439F7CE01DF91CF911F910F91FF905B
:10030000EF90DF90CF90BF90AF900C94F400B801C5
:1003100084E0759567958A95E1F7CE010E940A0100
:100320006F2DCE01DF91CF911F910F91FF90EF9034
:10033000DF90CF90BF90AF900C940A0140E0682FFF
:100340008FE391E00C944001CF93DF93823028F04B
:1003500090914E01986090934E01809352011092BB
:1003600053018AE39DE00197F1F760E0809143013A
:100370000E94A70060E0809145010E94A700809143
:1003800044018F3F19F060E00E94A70080914E0168
:1003900084FD20C063E08FE391E00E940A01CAE47B
:1003A000D6E4CE010197F1F763E08FE391E00E947C
:1003B0000A012197F1F763E08FE391E00E940A01BF
:1003C00082E592E00197F1F762E08FE391E00E940D
:1003D0000A0115C080620E949E018AE496E401979A
:1003E000F1F780914E0180620E949E0182E592E0C9
:1003F0000197F1F780914E0180620E949E018091E9
:100400004E0180620E949E0184E080934F018CE047
:100410000E949E0181E00E949E018AE39FE1019774
:10042000F1F782E08093500186E0DF91CF910C9448
:100430009E01CF93DF93CDB7DEB728970FB6F89420
:10044000DEBF0FBECDBF98E0E0E0F1E0DE01119627
:1004500001900D929A95E1F790915201891710F051
:100460008FEF890FFE013196E80FF11DE80FF11DA6
:100470008081805F806828960FB6F894DEBF0FBE3B
:10048000CDBFDF91CF910C949E0141E00E944001CD
:1004900081E090E00895CF92DF92EF92FF920F9368
:1004A0001F93CF93DF936C01EB017B01E40EF51EEC
:1004B00000E010E0CE15DF0561F06991D601ED9105
:1004C000FC910190F081E02DC6010995080F191FDC
:1004D000F1CFC801DF91CF911F910F91FF90EF9065
:1004E000DF90CF9008953FB7F89480913B019091B1
:1004F0003C01A0913D01B0913E0126B5A89B05C0ED
:100500002F3F19F00196A11DB11D3FBFBA2FA92F92
:10051000982F8827820F911DA11DB11DBC01CD010F
:1005200042E0660F771F881F991F4A95D1F70895FB
:100530001F920F920FB60F9211242F933F938F9318
:100540009F93AF93BF938091370190913801A09111
:100550003901B0913A013091360123E0230F2D3754
:1005600020F40196A11DB11D05C026E8230F0296B7
:10057000A11DB11D2093360180933701909338015E
:10058000A0933901B0933A0180913B0190913C01D5
:10059000A0913D01B0913E010196A11DB11D809336
:1005A0003B0190933C01A0933D01B0933E01BF916C
:1005B000AF919F918F913F912F910F900FBE0F9010
:1005C0001F901895789484B5826084BD84B581604D
:1005D00084BD85B5826085BD85B5816085BD80910E
:1005E0006E00816080936E00109281008091810086
:1005F000826080938100809181008160809381007E
:10060000809180008160809380008091B10084603F
:100610008093B1008091B00081608093B0008091A0
:100620007A00846080937A0080917A00826080935F
:100630007A0080917A00816080937A0080917A00BC
:10064000806880937A001092C10082E00E94A40129
:1006500080E00E94190244E150E060E171E08FE324
:1006600091E00E944B0281E00E94190240E150E0BB
:1006700065E271E08FE391E00E944B0200E010E040
:1006800088E10E949E010E947302EB0184EFC82E54
:10069000DD24D394E12CF12C0E9473026C1B7D0BA2
:1006A000683E7340C8F381E0C81AD108E108F10838
:1006B000C851DC4FC114D104E104F10469F70115FC
:1006C0001105F1F20E940000DBCF1092420110925E
:1006D00041018CE091E09093400180933F018CE0D8
:1006E000809343018FEF809344018BE08093450119
:1006F00085E08093460184E08093470183E0809306
:10070000480182E08093490110924A0110924B0106
:1007100010924C0110924D018CE00E948700809154
:1007200044018F3F11F00E948700809145010E9493
:10073000870010924E0181E00C94A401F8940C946F
:10074000A703EE0FFF1F0590F491E02D0994F89494
:02075000FFCFD9
:1007520000004000140054000000000045024B025B
:100762007A616B206861636B20746865204C436416
:1007720020747279007468697320697320636F6FE3
:060782006C2062726F00A2
:00000001FF
