:100000000C9435000C945D000C945D000C945D0024
:100010000C945D000C945D000C945D000C945D00EC
:100020000C945D000C945D000C945D000C945D00DC
:100030000C945D000C945D000C945D000C945D00CC
:100040000C941E020C945D000C94E4010C94A90124
:100050000C945D000C945D000C945D000C945D00AC
:100060000C945D000C945D00680211241FBECFEF5C
:10007000D8E0DEBFCDBF11E0A0E0B1E0ECE4FDE0F0
:1000800002C005900D92AE32B107D9F721E0AEE281
:10009000B1E001C01D92A53EB207E1F710E0C5E353
:1000A000D0E004C02197FE010E949E06C433D10710
:1000B000C9F70E94A3020C9436040C940000089522
:1000C0000F931F93CF93DF93FC01A685B7858D0116
:1000D000005C1F4FE8018881998101968F739927F1
:1000E000AD014E5B5F4FEA0128813981281739073E
:1000F000D1F3E80128813981A20FB31F6C93A68543
:10010000B785A05CBF4F11969C938E93A689B78943
:100110002C9181E090E0078C02C0880F991F0A940F
:10012000E2F7822B8C9381E081A30488F589E02D8E
:1001300080818064808381E090E0DF91CF911F9186
:100140000F910895FC0181A1882329F0A489B58924
:100150008C9186FFFBCF11A20895FC01A485B58583
:10016000FD01E05CFF4F20813181329680819181D9
:100170002817390779F080819181A80FB91F8C91D8
:10018000208131812F5F3F4F2F73332731832083AD
:1001900090E008958FEF9FEF0895DC011C96ED919C
:1001A000FC911D97DF01A05CBF4F2D913C911197F1
:1001B00012968D919C9111972817390739F08D91DE
:1001C0009C91E80FF91F808190E008958FEF9FEFD9
:1001D0000895FC0124853585F901E05CFF4F80819D
:1001E0009181329620813181821B930B8F739927E5
:1001F000089583EC91E00C94E900CF92DF92EF92A6
:10020000FF920F931F93CF93DF936C01EB017B0160
:10021000E40EF51E00E010E0CE15DF0561F06991F7
:10022000D601ED91FC910190F081E02DC601099578
:10023000080F191FF1CFC801DF91CF911F910F91C6
:10024000FF90EF90DF90CF9008953FB7F8948091A2
:10025000330190913401A0913501B091360126B55A
:10026000A89B05C02F3F19F00196A11DB11D3FBFEE
:10027000BA2FA92F982F8827820F911DA11DB11D7C
:10028000BC01CD0142E0660F771F881F991F4A9578
:10029000D1F70895009769F0FC0101900020E9F77B
:1002A0003197AF01481B590BBC0183EC91E00C94D2
:1002B000FD0080E090E008958F929F92AF92BF92F0
:1002C000EF92FF920F931F93CF93DF93CDB7DEB7DB
:1002D000A1970FB6F894DEBF0FBECDBF162F042F27
:1002E00019A2423008F40AE07E0121E2E20EF11C7C
:1002F000802E912CA12CB12C612FA50194010E947C
:100300007C06029F1019112481E0E81AF1081A30C6
:1003100014F4105D01C0195CF7011083122F732FC4
:10032000CA01232B242B252B39F7C7010E944A0130
:10033000A1960FB6F894DEBF0FBECDBFDF91CF916F
:100340001F910F91FF90EF90BF90AF909F908F9073
:1003500008951F920F920FB60F9211242F933F937F
:100360008F939F93EF93FF9320917B0130917C01BA
:1003700080917D0190917E012817390731F4809199
:10038000C1008F7D8093C10014C0E0917D01F09188
:100390007E01E55CFE4F208180917D0190917E0180
:1003A00001968F73992790937E0180937D0120930E
:1003B000C600FF91EF919F918F913F912F910F90E8
:1003C0000FBE0F901F9018951F920F920FB60F92AD
:1003D00011242F934F935F938F939F93EF93FF93EA
:1003E0008091C00082FD1CC02091C6008091BF0199
:1003F0009091C0014091C1015091C20101968F734B
:1004000099274817590771F0E091BF01F091C00199
:10041000E158FE4F20839093C0018093BF0102C03A
:100420008091C600FF91EF919F918F915F914F91C5
:100430002F910F900FBE0F901F9018951F920F9243
:100440000FB60F9211242F933F938F939F93AF93E7
:10045000BF9380912F0190913001A0913101B09113
:10046000320130912E0123E0230F2D3720F4019625
:10047000A11DB11D05C026E8230F0296A11DB11DC7
:1004800020932E0180932F0190933001A09331018E
:10049000B09332018091330190913401A0913501E4
:1004A000B09136010196A11DB11D80933301909347
:1004B0003401A0933501B0933601BF91AF919F9164
:1004C0008F913F912F910F900FBE0F901F90189515
:1004D000E3ECF1E01382128288EE93E0A0E0B0E05A
:1004E00084839583A683B78384E091E0918380839E
:1004F0008FE791E0958784878BE391E097878687E4
:1005000085EC90E0918B808B84EC90E0938B828BD8
:1005100080EC90E0958B848B81EC90E0978B868BC0
:1005200082EC90E0918F808F86EC90E0938F828FA9
:1005300084E0848F83E0858F87E0868F85E0878FD6
:1005400081E080A30895789484B5826084BD84B5E9
:10055000816084BD85B5826085BD85B5816085BDBE
:1005600080916E00816080936E0010928100809176
:1005700081008260809381008091810081608093FE
:100580008100809180008160809380008091B10023
:1005900084608093B1008091B00081608093B0004E
:1005A00080917A00846080937A0080917A008260E2
:1005B00080937A0080917A00816080937A008091A4
:1005C0007A00806880937A001092C100E091D70190
:1005D000F091D80181E090E09C010090E30102C01D
:1005E000220F331F0A94E2F72083E091D301F091A8
:1005F000D4011082E091D501F091D6012FEC208337
:100600001092E401E091D901F091DA0140819C015E
:100610000090DF0102C0220F331F0A94E2F7242B5F
:100620002083E091D901F091DA0140819C01009092
:10063000E00102C0220F331F0A94E2F7242B20832B
:10064000E091D901F091DA0140819C010090E10133
:1006500002C0220F331F0A94E2F7242B2083E0917B
:10066000D901F091DA0120810090E20102C0880FE7
:10067000991F0A94E2F7809582238083C0E4C09397
:100680007C0080917A00806480937A0080917A0067
:1006900086FDFCCF609178008091790070E0782B26
:1006A000072E000C880B990B0E9455052BE734E1AF
:1006B0004EEB50E40E940A0620E030EC4FE754E491
:1006C0000E94AB0460933701709338018093390125
:1006D00090933A0180E191E00E944A01C090370175
:1006E000D0903801E0903901F0903A01A7019601CD
:1006F000C701B6010E947706882319F08FE191E0C7
:100700001AC046015701E894B7F82FEF3FEF4FE7C3
:100710005FE7C501B4010E94770681110FC02FEF7A
:100720003FEF4FE75FE7C501B4010E94A60418162A
:100730002CF483E291E00E944A0181C02FEF3FEF49
:100740004FE75FE4C701B6010E94050618161CF4C6
:1007500087E291E0F0CF2FEF3FEF4FE75FECC7016B
:10076000B6010E94A60487FDF3CF20E030E0A90186
:10077000C701B6010E94A60487FF09C06DE283ECA1
:1007800091E00E946000F7FAF094F7F8F0942AE004
:1007900037ED43EA5BE3C701B6010E943A046B01FF
:1007A0007C010E9424054B015C010E9453059B01C2
:1007B000AC01C701B6010E9439046B017C014AE01B
:1007C000C501B4010E945C018BE291E00E944A01E4
:1007D000D3E0D150A1F120E030E040E251E4C70184
:1007E000B6010E940A064B015C010E941D056B01C7
:1007F000770FEE08FF08F7FE10C06DE283EC91E082
:100800000E94600088279927DC018C199D09AE0998
:10081000BF094AE0BC01CD0103C04AE0C701B601EF
:100820000E945C01C701B6010E9455059B01AC0105
:10083000C501B4010E9439046B017C01CACF6DE08F
:1008400083EC91E00E9460006AE083EC91E00E94FA
:1008500060000E9425017B010E9425016E197F091D
:10086000683E7340C8F30E94F90009CFF8940C94D5
:10087000A4065058BB27AA270E9451040C94CB050C
:100880000E94BD0538F00E94C40520F039F49F3F56
:1008900019F426F40C94BA050EF4E095E7FB0C94D9
:1008A000B405E92F0E94DC0558F3BA1762077307F5
:1008B0008407950720F079F4A6F50C94FE050EF454
:1008C000E0950B2EBA2FA02D0B01B90190010C0160
:1008D000CA01A0011124FF27591B99F0593F50F478
:1008E000503E68F11A16F040A22F232F342F4427D0
:1008F000585FF3CF469537952795A795F0405395C8
:10090000C9F77EF41F16BA0B620B730B840BBAF097
:100910009150A1F0FF0FBB1F661F771F881FC2F702
:100920000EC0BA0F621F731F841F48F48795779516
:100930006795B795F7959E3F08F0B0CF9395880FD0
:1009400008F09927EE0F9795879508950E949005D6
:1009500008F481E008950E94BF040C94CB050E9426
:10096000C40558F00E94BD0540F029F45F3F29F00E
:100970000C94B40551110C94FF050C94BA050E9417
:10098000DC0568F39923B1F3552391F3951B550BBF
:10099000BB27AA2762177307840738F09F5F5F4F52
:1009A000220F331F441FAA1FA9F335D00E2E3AF091
:1009B000E0E832D091505040E695001CCAF72BD0A9
:1009C000FE2F29D0660F771F881FBB1F26173707FA
:1009D0004807AB07B0E809F0BB0B802DBF01FF272C
:1009E00093585F4F3AF09E3F510578F00C94B40550
:1009F0000C94FF055F3FE4F3983ED4F3869577951A
:100A00006795B795F7959F5FC9F7880F911D9695E4
:100A1000879597F90895E1E0660F771F881FBB1F40
:100A2000621773078407BA0720F0621B730B840BED
:100A3000BA0BEE1F88F7E09508950E94240568948C
:100A4000B1110C94FF0508950E94E40588F09F57AA
:100A500098F0B92F9927B751B0F0E1F0660F771FE2
:100A6000881F991F1AF0BA95C9F714C0B13091F0D8
:100A70000E94FE05B1E008950C94FE05672F782FC3
:100A80008827B85F39F0B93FCCF38695779567959D
:100A9000B395D9F73EF490958095709561957F4F09
:100AA0008F4F9F4F0895E89409C097FB3EF49095AF
:100AB0008095709561957F4F8F4F9F4F9923A9F037
:100AC000F92F96E9BB279395F695879577956795C6
:100AD000B795F111F8CFFAF4BB0F11F460FF1BC00A
:100AE0006F5F7F4F8F4F9F4F16C0882311F096E99D
:100AF00011C0772321F09EE8872F762F05C066234B
:100B000071F096E8862F70E060E02AF09A95660F03
:100B1000771F881FDAF7880F9695879597F90895BC
:100B2000990F0008550FAA0BE0E8FEEF16161706FE
:100B3000E807F907C0F012161306E407F50798F066
:100B4000621B730B840B950B39F40A2661F0232B7F
:100B5000242B252B21F408950A2609F4A140A695FB
:100B60008FEF811D811D089597F99F6780E870E0E0
:100B700060E008959FEF80EC089500240A94161613
:100B8000170618060906089500240A94121613067B
:100B9000140605060895092E0394000C11F4882309
:100BA00052F0BB0F40F4BF2B11F460FF04C06F5F25
:100BB0007F4F8F4F9F4F089557FD9058440F551FFB
:100BC00059F05F3F71F04795880F97FB991F61F0CF
:100BD0009F3F79F087950895121613061406551F46
:100BE000F2CF4695F1DF08C0161617061806991FB2
:100BF000F1CF86957105610508940895E894BB27A7
:100C000066277727CB0197F908950E94900508F48D
:100C10008FEF08950E941D060C94CB050E94BD0520
:100C200038F00E94C40520F0952311F00C94B4050F
:100C30000C94BA0511240C94FF050E94DC0570F396
:100C4000959FC1F3950F50E0551F629FF001729F71
:100C5000BB27F00DB11D639FAA27F00DB11DAA1F80
:100C6000649F6627B00DA11D661F829F2227B00DCD
:100C7000A11D621F739FB00DA11D621F839FA00D58
:100C8000611D221F749F3327A00D611D231F849FA8
:100C9000600D211D822F762F6A2F11249F575040FF
:100CA0009AF0F1F088234AF0EE0FFF1FBB1F661F7A
:100CB000771F881F91505040A9F79E3F510580F043
:100CC0000C94B4050C94FF055F3FE4F3983ED4F315
:100CD000869577956795B795F795E7959F5FC1F7E7
:100CE000FE2B880F911D9695879597F908950E9480
:100CF0009005880B990B0895A1E21A2EAA1BBB1B25
:100D0000FD010DC0AA1FBB1FEE1FFF1FA217B307D7
:100D1000E407F50720F0A21BB30BE40BF50B661FED
:100D2000771F881F991F1A9469F7609570958095B1
:100D300090959B01AC01BD01CF010895EE0FFF1FFF
:0C0D40000590F491E02D0994F894FFCF89
:100D4C00000000006000FD00E900AD00CD00A20035
:100D5C0048656C6C6F207A616B203E3E203A006EC9
:0E0D6C00616E00696E66006F7666002E0000F4
:00000001FF
