:100000000C945D000C9485000C9485000C94850084
:100010000C9485000C9485000C9485000C9485004C
:100020000C9485000C9485000C9485000C9485003C
:100030000C9485000C9485000C9485000C9485002C
:100040000C94D4020C9485000C949A020C945F02D8
:100050000C9485000C9485000C9485000C9485000C
:100060000C9485000C94850000000007000201003C
:100070000003040600000000000000000000000073
:10008000250028002B0000000000240027002A0083
:10009000040404040404040402020202020203032E
:1000A0000303030301020408102040800102040836
:1000B00010200102040810201E0311241FBECFEFE0
:1000C000D8E0DEBFCDBF11E0A0E0B1E0E6EEF9E0A0
:1000D00002C005900D92A833B107D9F721E0A8E33B
:1000E000B1E001C01D92A73FB207E1F710E0CDE5F6
:1000F000D0E004C02197FE010E94EB04CC35D1076B
:10010000C9F70E9464030C94E8040C940000CF9299
:10011000DF92EF92FF920F931F93CF93DF936C01C7
:10012000EB017B01E40EF51E00E010E0CE15DF05CB
:1001300061F06991D601ED91FC910190F081E02D83
:10014000C6010995080F191FF1CFC801DF91CF91A2
:100150001F910F91FF90EF90DF90CF900895089539
:100160000F931F93CF93DF93FC01A685B7858D0175
:10017000005C1F4FE8018881998101968F73992750
:10018000AD014E5B5F4FEA0128813981281739079D
:10019000D1F3E80128813981A20FB31F6C93A685A2
:1001A000B785A05CBF4F11969C938E93A689B789A3
:1001B0002C9181E090E0078C02C0880F991F0A946F
:1001C000E2F7822B8C9381E081A30488F589E02DEE
:1001D00080818064808381E090E0DF91CF911F91E6
:1001E0000F910895FC0181A1882329F0A489B58984
:1001F0008C9186FFFBCF11A20895FC01A485B585E3
:10020000FD01E05CFF4F2081318132968081918138
:100210002817390779F080819181A80FB91F8C9137
:10022000208131812F5F3F4F2F733327318320830C
:1002300090E008958FEF9FEF0895DC011C96ED91FB
:10024000FC911D97DF01A05CBF4F2D913C91119750
:1002500012968D919C9111972817390739F08D913D
:100260009C91E80FF91F808190E008958FEF9FEF38
:100270000895FC0124853585F901E05CFF4F8081FC
:100280009181329620813181821B930B8F73992744
:10029000089581ED91E00C94390190E0FC01E8595A
:1002A000FF4F2491FC01EC55FF4F3491FC01E057C6
:1002B000FF4FE491EE2309F43CC0222339F12330AF
:1002C00091F038F42130A9F0223001F584B58F7D0A
:1002D00012C0263091F02730A1F02430B9F480917B
:1002E00080008F7D03C0809180008F778093800095
:1002F0000DC084B58F7784BD09C08091B0008F7721
:1003000003C08091B0008F7D8093B000F0E0EE0FCD
:10031000FF1FE458FF4FA591B4919FB7F894611166
:1003200004C08C913095382302C0EC913E2B3C9355
:100330009FBF08953FB7F8948091390190913A0199
:10034000A0913B01B0913C0126B5A89B05C02F3F71
:1003500019F00196A11DB11D3FBFBA2FA92F982FEB
:100360008827820F911DA11DB11DBC01CD0142E066
:10037000660F771F881F991F4A95D1F70895CF936D
:10038000DF930E949A01EB010E949A016C1B7D0B86
:10039000683E7340C8F3DF91CF910895CF93C62F85
:1003A00060E089E00E944D0160E08AE00E944D011A
:1003B00060E08BE00E944D0160E08CE00E944D0106
:1003C00061E08C2FCF910C944D01CF93DF93D82F08
:1003D000C2E06D2F8C2F0E944D01CF5FC930C9F74D
:1003E000DF91CF91089580E090E00E94E50161E007
:1003F00087E00C944D0180E090E00C94E50181E0F1
:1004000090E00E94E50160E085E00E944D0160E01F
:1004100084E00E944D0160E083E00C944D0180E097
:1004200090E00E94E50161E084E00C944D0180E0E1
:1004300090E00E94E50161E084E00E944D0161E0EE
:1004400087E00C944D0180E090E00E94E50161E0BE
:1004500085E00E944D0161E087E00E944D0161E06E
:1004600082E00C944D0180E090E00E94E50161E0A3
:1004700086E00E944D0161E087E00C944D0180E030
:1004800090E00E94E50161E086E00E944D0161E09C
:1004900083E00C944D0181E090E00E94E50160E072
:1004A00083E00E944D0160E084E00C944D0180E007
:1004B00090E00E94E50161E088E00C944D011F92FC
:1004C0000F920FB60F9211242F933F938F939F9308
:1004D000EF93FF932091890130918A0180918B01E4
:1004E00090918C012817390731F48091C1008F7DDC
:1004F0008093C10014C0E0918B01F0918C01E75B07
:10050000FE4F208180918B0190918C0101968F7319
:10051000992790938C0180938B012093C600FF91C3
:10052000EF919F918F913F912F910F900FBE0F9060
:100530001F9018951F920F920FB60F9211242F93B0
:100540004F935F938F939F93EF93FF938091C0009E
:1005500082FD1CC02091C6008091CD019091CE01FA
:100560004091CF015091D00101968F739927481780
:10057000590771F0E091CD01F091CE01E357FE4FA4
:1005800020839093CE018093CD0102C08091C6005C
:10059000FF91EF919F918F915F914F912F910F90CC
:1005A0000FBE0F901F9018951F920F920FB60F92CB
:1005B00011242F933F938F939F93AF93BF93809179
:1005C000F3019091F401A091F501B091F601309101
:1005D000380123E0230F2D3720F40196A11DB11D12
:1005E00005C026E8230F0296A11DB11D20933801F6
:1005F0008093F3019093F401A093F501B093F60179
:100600008091390190913A01A0913B01B0913C0158
:100610000196A11DB11D8093390190933A01A093D9
:100620003B01B0933C01BF91AF919F918F913F915E
:100630002F910F900FBE0F901F901895E1EDF1E0F4
:100640001382128288EE93E0A0E0B0E08483958369
:10065000A683B7838CE291E0918380838DE891E05B
:100660009587848789E491E09787868785EC90E079
:10067000918B808B84EC90E0938B828B80EC90E06C
:10068000958B848B81EC90E0978B868B82EC90E04D
:10069000918F808F86EC90E0938F828F84E0848F9F
:1006A00083E0858F87E0868F85E0878F81E080A358
:1006B0008FB7F8944091F3015091F4016091F501E6
:1006C0007091F6018FBF0895789484B5826084BDDF
:1006D00084B5816084BD85B5826085BD85B5816046
:1006E00085BD80916E00816080936E0010928100C4
:1006F000809181008260809381008091810081607F
:10070000809381008091800081608093800080913F
:10071000B10084608093B1008091B00081608093CB
:10072000B00080917A00846080937A0080917A0092
:10073000826080937A0080917A00816080937A0051
:1007400080917A00806880937A001092C10021E045
:1007500030E02F5F3F4F2D303105F1F0F901EC55BE
:10076000FF4F4491F901E057FF4F8491882389F3AB
:1007700090E0880F991FFC01EA57FF4FA591B491B3
:10078000FC01E458FF4F859194918FB7F894EC9158
:10079000E42BEC938FBFDDCFE091E501F091E60112
:1007A00081E090E09C010090F10102C0220F331F14
:1007B0000A94E2F72083E091E101F091E2011082D6
:1007C000E091E301F091E4012FEC20831092F2011B
:1007D000E091E701F091E80140819C010090ED017A
:1007E00002C0220F331F0A94E2F7242B2083E091EA
:1007F000E701F091E80140819C010090EE0102C008
:10080000220F331F0A94E2F7242B2083E091E701A3
:10081000F091E80140819C010090EF0102C0220F9D
:10082000331F0A94E2F7242B2083E091E701F09133
:10083000E80120810090F00102C0880F991F0A94FE
:10084000E2F78095822380832FB7F8948091F3019B
:100850009091F401A091F501B091F6012FBF409164
:1008600045015091460160914701709148018C010A
:100870009D01041B150B260B370BB901A801483E3F
:1008800053406105710508F448C080934501909379
:100890004601A0934701B093480180914301909194
:1008A000440101968A30910529F090934401809388
:1008B00043010DC010924401109243018091410107
:1008C0009091420101969093420180934101809161
:1008D0004101909142010A9769F4109242011092ED
:1008E000410180913F019091400101969093400118
:1008F00080933F0180913F01909140010A9769F4F4
:100900001092400110923F0180913D0190913E0173
:10091000019690933E0180933D0169E070E080E094
:1009200090E00E94CE01E0914301F0914401EE0F6E
:10093000FF1FEE0FFF1FE050FF4F0280F381E02DFD
:1009400009950E94BF016AE070E080E090E00E949B
:10095000CE01E0914101F0914201EE0FFF1FEE0F39
:10096000FF1FE050FF4F0280F381E02D09950E94A8
:10097000BF016BE070E080E090E00E94CE01E0916A
:100980003F01F0914001EE0FFF1FEE0FFF1FE050FF
:10099000FF4F0280F381E02D09950E94BF016CE0BA
:1009A00070E080E090E00E94CE01E0913D01F09186
:1009B0003E01EE0FFF1FEE0FFF1FE050FF4F0280C2
:1009C000F381E02D09950E94BF010E9449013CCFAF
:1009D000F8940C94F104EE0FFF1F0590F491E02DB4
:0609E0000994F894FFCF1A
:1009E6000000570201004B0202003F0203003302DF
:1009F600040023020500170206000F020700FF018C
:100A06000800FB010900F30100000000B0008700A8
:080A16003901FD001D01F20091
:00000001FF
