:100000000C945D000C9485000C9485000C94850084
:100010000C9485000C9485000C9485000C9485004C
:100020000C9485000C9485000C9485000C94690256
:100030000C9485000C9485000C9485000C9485002C
:100040000C949F030C9485000C9465030C942A0374
:100050000C9485000C9485000C9485000C9485000C
:100060000C9485000C9485000000000024002700FB
:100070002A0000000000250028002B0004040404CE
:100080000404040402020202020203030303030342
:10009000010204081020408001020408102001021F
:1000A00004081020000000070002010000030406FD
:1000B0000000000000000000E90311241FBECFEF84
:1000C000D8E0DEBFCDBF11E0A0E0B1E0E4E3FCE0AA
:1000D00002C005900D92A031B107D9F721E0A0E14F
:1000E000B1E001C01D92AE3EB207E1F710E0CDE5F0
:1000F000D0E004C02197FE010E941206CC35D10742
:10010000C9F70E945A040C94A0050C940000CF92E9
:10011000DF92EF92FF92DC01A03282E0B8070CF090
:100120003EC0B7FD06C0A53BB1052CF0A4EBB0E086
:1001300002C0A0E0B0E08091EC0128E830E0690165
:10014000C81AD10887FDD394CC0CDD1CCC0CDD1C67
:100150000D2C000CEE08FF088091ED0128E532E03F
:10016000281B310987FD3395220F331F220F331FC0
:10017000A901330F660B770B9A01AB012C193D09CE
:100180004E095F090E94CD0524EB30E040E050E0CD
:100190000E94A305C20ED31EE41EF51ED601909147
:1001A000EB019C3098F58091EC0148E850E0481B49
:1001B000510987FD5395440F551F440F551FA41730
:1001C000B5078CF08091ED0128E532E0281B31095C
:1001D00087FD3395220F331F220F331FAD012A17DE
:1001E0003B070CF4A9012FB7F894892F90E0FC018C
:1001F000EE0FFF1F8E0F9F1FFC01EA53FE4F425070
:100200005109440F551F528341832FBFFF90EF9038
:10021000DF90CF900895CF92DF92EF92FF920F93ED
:100220001F93CF93DF936C01EB017B01E40EF51E6E
:1002300000E010E0CE15DF0561F06991D601ED9187
:10024000FC910190F081E02DC6010995080F191F5E
:10025000F1CFC801DF91CF911F910F91FF90EF90E7
:10026000DF90CF900895089590E0FC01EC55FF4F8A
:100270002491FC01E057FF4F3491FC01E458FF4FFB
:10028000E491EE2309F43CC0222339F1233091F0AC
:1002900038F42130A9F0223001F584B58F7D12C0E9
:1002A000263091F02730A1F02430B9F480918000FD
:1002B0008F7D03C0809180008F77809380000DC078
:1002C00084B58F7784BD09C08091B0008F7703C05B
:1002D0008091B0008F7D8093B000F0E0EE0FFF1FA3
:1002E000EE58FF4FA591B4919FB7F894611104C0E7
:1002F0008C913095382302C0EC913E2B3C939FBFEC
:1003000008950F931F93CF93DF93FC01A685B785C4
:100310008D01005C1F4FE8018881998101968F73E0
:100320009927AD014E5B5F4FEA012881398128177B
:100330003907D1F3E80128813981A20FB31F6C93EB
:10034000A685B785A05CBF4F11969C938E93A68916
:10035000B7892C9181E090E0078C02C0880F991F2B
:100360000A94E2F7822B8C9381E081A30488F589BB
:10037000E02D80818064808381E090E0DF91CF91E7
:100380001F910F910895FC0181A1882329F0A48970
:10039000B5898C9186FFFBCF11A20895FC01A4853D
:1003A000B585FD01E05CFF4F20813181329680816F
:1003B00091812817390779F080819181A80FB91FA1
:1003C0008C91208131812F5F3F4F2F7333273183F1
:1003D000208390E008958FEF9FEF0895DC011C9635
:1003E000ED91FC911D97DF01A05CBF4F2D913C91D9
:1003F000119712968D919C9111972817390739F012
:100400008D919C91E80FF91F808190E008958FEF06
:100410009FEF0895FC0124853585F901E05CFF4FCD
:1004200080819181329620813181821B930B8F7361
:100430009927089584EA91E00C940A023FB7F89452
:100440008091150190911601A0911701B0911801AA
:1004500026B5A89B05C02F3F19F00196A11DB11D1F
:100460003FBFBA2FA92F982F8827820F911DA11D5A
:10047000B11DBC01CD0142E0660F771F881F991F97
:100480004A95D1F70895CF92DF92EF92FF92CF93E2
:10049000DF936B017C010E941E02EB01C114D104A9
:1004A000E104F10479F00E941E026C1B7D0B683E92
:1004B0007340A0F381E0C81AD108E108F108C851DF
:1004C000DC4FECCFDF91CF91FF90EF90DF90CF909A
:1004D00008951F920F920FB60F9211242F933F93FE
:1004E0004F935F936F937F938F939F93AF93BF933C
:1004F000EF93FF9380911B0187FF05C01092850049
:10050000109284001BC020911B01022E000C330BA3
:100510008091EA0190E02817390784F480911B014B
:10052000082E000C990BFC01EE0FFF1F8E0F9F1F72
:10053000FC01EA53FE4F808186FD15C080911B01AE
:100540008F5F80931B0120911B01022E000C330B47
:100550008091EA0190E028173907C4F480911B01CB
:100560008C3064F113C080911B01082E000C990B94
:10057000FC01EE0FFF1F8E0F9F1FFC01EA53FE4F81
:10058000808160E08F730E943401D8CF8091840015
:1005900090918500049680349C4918F480E49CE98D
:1005A00005C0809184009091850004969093890005
:1005B000809388008FEF80931B013BC020918400C3
:1005C0003091850080911B01082E000C990BFC01D5
:1005D000EE0FFF1F8E0F9F1FFC01EA53FE4F81811C
:1005E0009281820F931F909389008093880080915D
:1005F0001B01082E000C990BFC01EE0FFF1F8E0F44
:100600009F1FFC01EA53FE4F808186FF12C080913C
:100610001B01082E000C990BFC01EE0FFF1F8E0F23
:100620009F1FFC01EA53FE4F808161E08F730E949F
:100630003401FF91EF91BF91AF919F918F917F9185
:100640006F915F914F913F912F910F900FBE0F903F
:100650001F9018951F920F920FB60F9211242F938F
:100660003F938F939F93EF93FF9320915C01309181
:100670005D0180915E0190915F012817390731F487
:100680008091C1008F7D8093C10014C0E0915E0114
:10069000F0915F01E45EFE4F208180915E019091B8
:1006A0005F0101968F73992790935F0180935E019C
:1006B0002093C600FF91EF919F918F913F912F91D1
:1006C0000F900FBE0F901F9018951F920F920FB6AC
:1006D0000F9211242F934F935F938F939F93EF93D8
:1006E000FF938091C00082FD1CC02091C6008091C4
:1006F000A0019091A1014091A2015091A301019606
:100700008F7399274817590771F0E091A001F09174
:10071000A101E05AFE4F20839093A1018093A00194
:1007200002C08091C600FF91EF919F918F915F91E0
:100730004F912F910F900FBE0F901F9018951F9201
:100740000F920FB60F9211242F933F938F939F9385
:10075000AF93BF938091110190911201A091130169
:10076000B09114013091100123E0230F2D3720F4B4
:100770000196A11DB11D05C026E8230F0296A11DFB
:10078000B11D209310018093110190931201A09349
:100790001301B09314018091150190911601A0915D
:1007A0001701B09118010196A11DB11D809315018B
:1007B00090931601A0931701B0931801BF91AF91C8
:1007C0009F918F913F912F910F900FBE0F901F908F
:1007D00018951092A7011092A60188EE93E0A0E070
:1007E000B0E08093A8019093A901A093AA01B093CF
:1007F000AB0184E091E09093A5018093A40180E691
:1008000091E09093B1018093B0018CE191E09093DD
:10081000B3018093B20185EC90E09093B501809391
:10082000B40184EC90E09093B7018093B60180EC22
:1008300090E09093B9018093B80181EC90E090939F
:10084000BB018093BA0182EC90E09093BD0180934C
:10085000BC0186EC90E09093BF018093BE0184E0E0
:100860008093C00183E08093C10187E08093C2013F
:1008700085E08093C30181E08093C4018091EA0107
:100880008C30A0F491E0980F9093EA018093EB01F3
:1008900090E0FC01EE0FFF1F8E0F9F1FFC01EA533B
:1008A000FE4F88EB9BE09283818308958FEF8093C6
:1008B000EB010895789484B5826084BD84B581602D
:1008C00084BD85B5826085BD85B5816085BD80911B
:1008D0006E00816080936E00109281008091810093
:1008E000826080938100809181008160809381008B
:1008F000809180008160809380008091B10084604D
:100900008093B1008091B00081608093B0008091AD
:100910007A00846080937A0080917A00826080936C
:100920007A0080917A00816080937A0080917A00C9
:10093000806880937A001092C1008091EB018C3026
:1009400008F068C0E3E9F0E02491EFE7F0E084917B
:10095000882399F090E0880F991FFC01E859FF4F18
:10096000A591B491FC01EE58FF4F859194918FB7FA
:10097000F894EC91E22BEC938FBF8091EB01E82F80
:10098000F0E09F01220F331FE20FF31FEA53FE4FE7
:100990009081907C936090831092EC011092ED0115
:1009A0006CE00E9406069CE0899FB001112440E0A3
:1009B00050E09B01240F351FF901EE0FFF1F2E0F92
:1009C0003F1FF901EA53FE4F908196FD16C04F5F1D
:1009D0005F4F4C30510569F781110FC010928000B4
:1009E00082E0809381001092850010928400B19A79
:1009F00080916F00826080936F00E091EB01F0E0E6
:100A0000CF01880F991FE80FF91FEA53FE4F80812D
:100A1000806480838091190190911A010E9487005F
:100A2000E091B801F091B90181E090E09C01009063
:100A3000C40102C0220F331F0A94E2F72083E09121
:100A4000B401F091B5011082E091B601F091B701C7
:100A50002FEC20831092C501E091BA01F091BB0107
:100A600040819C010090C00102C0220F331F0A94F4
:100A7000E2F7242B2083E091BA01F091BB01408181
:100A80009C010090C10102C0220F331F0A94E2F7BB
:100A9000242B2083E091BA01F091BB0140819C019D
:100AA0000090C20102C0220F331F0A94E2F7242BE8
:100AB0002083E091BA01F091BB0120810090C30135
:100AC00002C0880F991F0A94E2F7809582238083E1
:100AD00004EB10E010921A0110921901C091190153
:100AE000D0911A01C53BD1057CF4CE010E9487004C
:100AF00064E170E080E090E00E9443022196D09390
:100B00001A01C0931901EACF10931A010093190139
:100B1000C0911901D0911A01D7FD0FC0CE010E94DA
:100B200087006FE070E080E090E00E944302219730
:100B3000D0931A01C0931901EBCF0E941A02CACFB9
:100B4000F8940C941806052E97FB1EF400940E944E
:100B5000BA0557FD07D00E94D50507FC03D04EF417
:100B60000C94BA0550954095309521953F4F4F4FC5
:100B70005F4F089590958095709561957F4F8F4F49
:100B80009F4F08950E94F705A59F900DB49F900D6B
:100B9000A49F800D911D11240895B7FF0C94C205E8
:100BA0000E94C205821B930B0895A1E21A2EAA1B74
:100BB000BB1BFD010DC0AA1FBB1FEE1FFF1FA2170D
:100BC000B307E407F50720F0A21BB30BE40BF50B0A
:100BD000661F771F881F991F1A9469F76095709593
:100BE000809590959B01AC01BD01CF010895A29F16
:100BF000B001B39FC001A39F700D811D1124911DF1
:100C0000B29F700D811D1124911D0895991B79E0EB
:100C100004C0991F961708F0961B881F7A95C9F78C
:100C200080950895EE0FFF1F0590F491E02D099433
:040C3000F894FFCF66
:100C34000000000081010B010A02CE01EE01C30194
:00000001FF
